:020000040800F2
:10000000B80500203D350008E9330008EB3300084F
:10001000ED330008EF330008F13300080000000062
:10002000000000000000000000000000F3330008A2
:10003000F533000800000000F7330008F93300082A
:10004000693500086D350008713500087535000800
:10005000793500087D3500088135000885350008B0
:10006000893500088D3500089135000801340008F5
:1000700095350008993500089D350008A135000820
:10008000A5350008A9350008AD350008B1350008D0
:10009000B5350008B9350008BD350008C135000880
:1000A000C5350008C9350008CD350008D135000830
:1000B000D5350008D935000800000000DD350008FE
:1000C000E13500080000000000000000E5350008F0
:1000D00000000000E9350008ED350008F1350008A2
:1000E000F5350008F93500080000000000000000A8
:1000F0000000000000000000000000000000000000
:1001000000000000000000000000000000000000EF
:100110000000000000000000FD3500080136000866
:1001200000000000000000000000000000000000CF
:1001300000000000000000000000000000000000BF
:100140000536000809360008000000000000000025
:10015000000000000000000000000000000000009F
:10016000000000000000000000000000000000008F
:10017000000000000000000000000000000000007F
:10018000000000000D360008F0B595B00500002411
:10019000002700200090002D01D1012013E12869E3
:1001A000002802D095F820000028286CC00653D4FF
:1001B000286C00283CD1002068640020E8640020FE
:1001C000A864002085F83C00280000F0A0FD286805
:1001D0008068C0002CD4280000F02CFD0400286C9E
:1001E000C00625D4E4B2002C22D1286C30F488500B
:1001F00050F0020028642868806830F04050296878
:1002000088602868806850F0805029688860DFF82E
:1002100000030068DFF8FC12B0FBF1F10A20414353
:1002200000910098002803D00098401E0090F8E745
:1002300028688068C00003D52868806880000BD5D6
:10024000286C30F0020050F010002864686C50F008
:100250000100686401200400286CC00600F1A98038
:10026000E4B2002C40F0A58028688068400700F1C7
:10027000A080286C30F4807050F002002864DFF811
:10028000980206002868B0F1A04F04D1DFF88C0274
:100290000190019803E05FF0A04001900198286868
:1002A000806810F00300012804D12868006810F06D
:1002B000010000E00020002816D1019800280DD090
:1002C0000198806810F00300012804D101980068AB
:1002D00010F0010000E00020002805D1B16831F4E1
:1002E000403168680143B160686B012802D04FF467
:1002F000805100E00021687E51EA4031E868014306
:10030000A86801430F4395F82000012813D1687EA7
:10031000002806D1686A401E400450F4803007432C
:1003200009E0286C30F0020050F020002864686C6E
:1003300050F001006864A86A012803D0A96AE86A3D
:1003400001430F432868806810F00C0F0DD1286816
:10035000C168DFF8CC0101402868C160287E95F8AB
:100360003010490051EA80310F432868C168DFF836
:10037000B401014039432868C1602869012809D1C6
:100380002868006B00090001E969491E08432968D3
:10039000086305E02868006B00090001296808630C
:1003A00000206864286C30F0020050F001002864DE
:1003B00007E0286C30F0020050F0100028640120A3
:1003C00004002000C0B215B0F0BD2DE9F0410500D9
:1003D0000E0017005FF0000828688068400700F1F1
:1003E000918095F83C00012801D102208DE0012088
:1003F00085F83C00DFF8DC01006810F01F0F7CD1AD
:10040000280000F0D4FB0400E4B2002C71D1296C68
:10041000DFF8BC01014051F480712964DFF8B401B8
:10042000006810F01F0F03D02868B0F1A04F0ED164
:10043000286C30F4801028642868C068800121D5B9
:10044000286C30F4005050F4805028641AE0286C76
:1004500050F4801028642868B0F1A04F03D02868B9
:100460002E49884205D1DFF87001006810F0007055
:1004700000E00020002805D0286C30F4005050F433
:1004800080502864286CC00404D5686C30F00600E5
:10049000686401E000206864002085F83C00DFF813
:1004A0003C01A96B8862DFF83801A96BC862DFF8EC
:1004B0003401A96B08631C2029680860286840681B
:1004C00050F01000296848602868C06850F00100AA
:1004D0002968C8603B003200286810F14001A86B11
:1004E00000F01FFD2868806850F0040029688860CB
:1004F00009E0002085F83C0005E00124002085F893
:100500003C0000E002242000C0B2BDE8F081000001
:100510001000002040420F00000300500001005076
:10052000FDBFFFFF07C0F0FF2DE9F04106000F00FF
:100530005FF0000896F83C00012801D1022045E058
:10054000012086F83C00300000F074FB0400E4B2A7
:10055000002C36D1012030643068806830F0804053
:1005600031688860012F05D13068806850F0804084
:10057000316888603068806850F000403168886079
:1005800000F0A8FD050030688068002813D500F051
:10059000A1FD401B0B28F6D3306880680028F2D5F7
:1005A000306C30F0020050F010003064002086F80B
:1005B0003C0001200AE0306C30F0020050F00100F5
:1005C0003064002086F83C002000C0B2BDE8F08115
:1005D000FEF1FFFF080300500C000050350B00082F
:1005E000830B0008910B0008F0B495B004000025BF
:1005F00000200090C8680128FFD194F83C00012831
:1006000001D10220FDE1012084F83C0020688068CF
:10061000400700F1EB814868052816D22068066B78
:100620001F27D1F804C0062000FB0CFC17FA0CF7BA
:10063000BE430F68D1F804C0062000FB0CFC17FA7B
:100640000CF73E432068066349E048680A2816D242
:100650002068466B1F274868401F5FF0060C10FBA0
:100660000CF08740BE430F684868401F5FF0060CDF
:1006700010FB0CF087403E43206846632FE048683B
:100680000F2816D22068866B1F2748680A385FF04B
:10069000060C10FB0CF08740BE430F6848680A3810
:1006A0005FF0060C10FB0CF087403E432068866329
:1006B00015E02068C66B1F2748680F385FF0060CEE
:1006C00010FB0CF08740BE430F6848680F385FF09E
:1006D000060C10FB0CF087403E432068C663206880
:1006E000806810F00C0F40F0B38008680A2816D319
:1006F00020688669072708680A385FF0030C10FB3A
:100700000CF08740BE438F6808680A385FF0030C1E
:1007100010FB0CF087403E432068866115E020689E
:1007200046690727D1F800C0032000FB0CFC17FA2C
:100730000CF7BE438F68D1F800C0032000FB0CFC0F
:1007400017FA0CF73E43206846614E692068C0687E
:10075000C0F3C100C0B240008640330008690128E0
:1007600006D03DD303281FD010D304282AD037E069
:100770002068066EDFF8B8030640086856EA80660F
:100780001E4356F000462068066661E02068466E0B
:10079000DFF89C030640086856EA80661E4356F060
:1007A00000462068466653E02068866EDFF88003C6
:1007B0000640086856EA80661E4356F000462068E8
:1007C000866645E02068C66EDFF864030640086868
:1007D00056EA80661E4356F000462068C66637E03B
:1007E0002068006E10F0F8400E68B0EB866F05D1FF
:1007F0002068006E20F00040266830662068406E59
:1008000010F0F8400E68B0EB866F05D12068406E9E
:1008100020F00040266870662068806E10F0F84076
:100820000E68B0EB866F05D12068806E20F0004026
:100830002668B0662068C06E10F0F8400E68B0EB15
:10084000866F05D12068C06E20F000402668F066F3
:100850002068806810F00300012804D12068006837
:1008600010F0010000E00020002840F0C580C868BA
:1008700001280AD02068D0F8B060012708688740B6
:10088000BE432068C0F8B06039E02068D0F8B0609E
:100890000127086887403E432068C0F8B0600868B8
:1008A0000A2816D3206886690727086809385FF088
:1008B000030C10FB0CF08740BE438F6808680938B2
:1008C0005FF0030C10FB0CF087403E43206886610C
:1008D00015E02068466907270868401C5FF0030C94
:1008E00010FB0CF08740BE438F680868401C5FF027
:1008F000030C10FB0CF087403E4320684661DFF894
:10090000C40302000868102802D1906800020BD5C9
:100910000868112802D19068C00105D5086812281E
:100920006AD19068400267D42068B0F1A04F03D12B
:1009300035480190019803E05FF0A04001900198D4
:100940002068806810F00300012804D12068006846
:1009500010F0010000E00020002840D1019800289C
:100960000DD00198806810F00300012804D101988F
:10097000006810F0010000E0002000282FD1086876
:10098000102818D12068B0F1A04F14D1906850F40D
:1009900000009060DFF830030068DFF83063B0FBE0
:1009A000F6F60A20464300960098002824D00098C6
:1009B000401E0090F8E70868112808D12068B0F1BF
:1009C000A04F04D1906850F08070906014E00868E7
:1009D000122811D1906850F4800090600CE0206CD7
:1009E00050F0200020640120050005E0206C50F04C
:1009F0002000206401200500002084F83C0028002D
:100A0000C0B215B0F0BC70470001005030B494B0D3
:100A100003000024086800281868B0F1A04F04D132
:100A2000DFF8AC020090009803E05FF0A040009077
:100A300000980098002801D1012075E093F83C004F
:100A4000012801D102206FE0012083F83C001868E2
:100A5000806840075DD400988068400759D4DFF86B
:100A600064020200086800282ED0956835F46045BD
:100A70004868054393F8300055EA4035956018689A
:100A8000806810F00300012804D11868006810F095
:100A9000010000E00020002841D10098806810F09B
:100AA0000300012804D10098006810F0010000E064
:100AB0000020002833D19568864805400868054322
:100AC0008868054395602AE0906830F46040906043
:100AD0001868806810F00300012804D118680068C5
:100AE00010F0010000E00020002818D10098806874
:100AF00010F00300012804D10098006810F00100F4
:100B000000E0002000280AD19568724805409560F1
:100B100005E0186C50F0200018640120040000204B
:100B200083F83C002000C0B214B030BC7047000015
:100B300000F0FF8338B50400656A286C10F0500F90
:100B40001AD1286C50F4007028642868C06810F42A
:100B5000406F0DD1687E00280AD1286C30F4807077
:100B60002864286CC00403D4286C50F00100286469
:100B7000280000F0B5FA03E02000A96B096B884754
:100B800031BD38B50400656A280000F0AAFA31BD0D
:100B900038B50400656A286C50F040002864686C21
:100BA00050F004006864280000F09CFA31BD38B5AC
:100BB000040000252068806810F00300012804D19B
:100BC0002068006810F0010000E0002000282FD10C
:100BD000206880686FF39E10002809D0206C50F0C8
:100BE00010002064606C50F001006064012020E07F
:100BF0002068806850F001002168886000F06AFA7F
:100C0000050020680068C00712D400F063FA401B9A
:100C10000328F6D320680068C007F2D4206C50F097
:100C200010002064606C50F001006064012000E05E
:100C3000002032BD38B5040000252068806810F01F
:100C40000300012804D12068006810F0010000E0D2
:100C50000020002833D02068806810F00D000128A3
:100C60000CD12068806850F0020021688860032061
:100C70002168086000F02EFA050009E0206C50F0B1
:100C800010002064606C50F001006064012017E0E7
:100C900020688068C00712D500F01CFA401B0328AA
:100CA000F6D320688068C007F2D5206C50F01000A1
:100CB0002064606C50F001006064012000E00020BE
:100CC00032BD0000000300501000002040420F0021
:100CD00000010050E0F0FFFF81B07448006850F060
:100CE0000100724908607148006810F0010000902E
:100CF00000986F48006850F080506D4908606C485B
:100D0000006810F080500090009801B0704710B556
:100D100086B0040001A8142100F0E6F92068B0F1C3
:100D2000A04F48D16348006850F080506149086086
:100D30006048006810F08050009000985D4800689E
:100D400050F400305B4908605A48006810F40030E5
:100D5000009000980320019003200290002003904F
:100D600001A95FF0904000F0C3F95348534908606F
:100D700000205249486000205049886080204F4937
:100D8000C8604FF480704D4908614FF480604B4952
:100D900048612020494988614FF440504749C86163
:100DA000464800F093F8002801D000F035FC434895
:100DB000A0634248446206B010BD10B586B004007E
:100DC00001A8142100F090F920683D49884222D101
:100DD0003748006850F000503549086034480068D2
:100DE00010F00050009000983248006850F4003035
:100DF000304908602F48006810F4003000900098D7
:100E000010200190032002900020039001A95FF0C0
:100E1000904000F06DF906B010BD81B00168294A1C
:100E200091420BD12149096851F400611F4A1160B8
:100E30001E49096811F400610091009901B07047E2
:100E400010B586B0040001A8142100F04DF9206807
:100E50001D49884227D11548006850F48040134945
:100E600008601248006810F4804000900098114813
:100E7000006850F400300F4908600E48006810F414
:100E80000030009000984FF4C06001900220029062
:100E900000200390032004900720059001A95FF033
:100EA000904000F025F906B010BD00001810024077
:100EB0001C100240141002400800024038010020BB
:100EC00000740040002C01400038014070B504005F
:100ED0000025002C01D1012022E0022084F821000D
:100EE000206806686FF30D166168A0680143E0682A
:100EF00001432069014360690143A0690143E0693E
:100F000001430E4320680660200000F0D3F8002063
:100F1000A063012084F82100002084F82000002034
:100F200070BD2DE9F04104000D0016001F005FF0B8
:100F3000000894F82000012801D102203BE00120A4
:100F400084F8200094F8210001282DD1022084F893
:100F500021000020A063206800684008400021684C
:100F600008603B0032002900200000F08DF8E06AA4
:100F7000002806D02068006850F00E002168086044
:100F80000BE02068006850F00A00216808602068C3
:100F9000006830F00400216808602068006850F0A4
:100FA00001002168086004E0002084F8200002208D
:100FB00080464046C0B2BDE8F08170B50400E06BE9
:100FC0000568206806680421206C81400D4217D016
:100FD000700715D520680068800605D42068006871
:100FE00030F00400216808600421206C8140E06B2F
:100FF0004160E06A002846D02000E16A884742E06C
:101000000221206C81400D421DD0B0071BD5206805
:101010000068800608D42068006830F00A00216863
:101020000860012084F821000221206C8140E06BDF
:101030004160002084F82000A06A002823D020000E
:10104000A16A88471FE00821206C81400D421AD018
:10105000300718D52068006830F00E00216808605D
:101060000121206C8140E06B41600120A0630120E0
:1010700084F82100002084F82000206B002802D092
:101080002000216B884770BD30B40125046CA54059
:10109000C46B6560046863604468102C04D1046804
:1010A000A2600468E16003E00468A1600468E26093
:1010B00030BC7047026805498A181421B2FBF1F16F
:1010C000890001640249C16370470000F8FFFDBF59
:1010D0000000024001480068704700BFB0010020D6
:1010E0007047704770470000002200F097BA000078
:1010F000F8B4030000250868E840002800F0D0801C
:1011000008680126AE4030400200002A00F0C68088
:10111000087910F00300012804D0087910F00300CA
:10112000022818D19E6803272800C0B240008740DB
:10113000BE43CF682800C0B2400087403E439E6057
:1011400058680127AF40B8434F68C7F30017AF4056
:10115000384304005C60087910F0030003280ED0C7
:10116000DE6803272800C0B240008740BE438F6876
:101170002800C0B2400087403E433400DC6008795C
:1011800010F00300022818D12800C00803EB8000EB
:10119000066A0F2715F00700C0B280008740BE43E3
:1011A0000F6915F00700C0B2800087403E4334004D
:1011B0002800C00803EB800004621E680327280093
:1011C000C0B240008740BE430F7917F003072800E4
:1011D000C0B2400087403E4334001C60486810F4B1
:1011E000403F5BD02F48006850F001002D4E30602A
:1011F0002C48006810F00100009000982A482E004A
:10120000B60850F826600F2715F00300C0B2800022
:101210008740BE43B3F1904F01D100240FE0234833
:10122000834201D101240AE02148834201D10224F2
:1012300005E02048834201D1032400E0052415F095
:101240000300C0B280008440264317482C00A40845
:1012500040F824601848006890434C68E40300D5C7
:101260001043154C2060154C246894434E68B60317
:1012700000D51443114804601148006890434E683B
:10128000F60200D510430E4C20600E4C24689443A7
:101290004E68B60200D514430A4804606D1C2AE764
:1012A000F1BC7047181002400800014000040048DB
:1012B00000080048000C00480004014004040140FC
:1012C000080401400C04014080B500F0C1F900F0B1
:1012D0001FF900F0F6F800F0DEF800F00BF800F06F
:1012E00077F800F094F800F05FF900F0C5F900F02D
:1012F000D4F9FCE700B589B006A80021002200233C
:1013000080E80E0068461821FFF7EEFE5FF0A0406F
:10131000B94908600020B84948600020B649886093
:101320000120B54908610020B34948760020B24940
:1013300081F820004FF48060AF49C8624FF410700C
:10134000AD4988620020AC49C8600220AA49C86142
:101350000120A94981F830000420A74948610020F4
:10136000A54908760020A4494863A348FEF70CFF6E
:10137000002801D000F050F90020069006A99E48F0
:10138000FFF744FB002801D000F046F9012000904F
:101390000120019000200390002002900020049082
:1013A0000020059069469448FFF71EF9002801D0F7
:1013B00000F032F9022000900220019069468E4828
:1013C000FFF712F9002801D000F026F909B000BD9E
:1013D000E0B5684600210022002380E80E0087481F
:1013E00087490860864800F099F9002801D000F08C
:1013F00013F90020009002200190002269468048E5
:1014000000F0EDF9002801D000F006F907BD00B5A5
:1014100087B003A81021FFF767FE6846002100226D
:10142000002380E80E007748774908604FF4347055
:101430007549486000207449886001207249C8607D
:1014400000207149086100206F49486100206E4901
:1014500088616D4800F004FA002801D000F0DCF843
:101460004FF48050039003A9674800F075FA0028F4
:1014700001D000F0D1F82020009000200190002041
:1014800002906946604800F071FB002801D000F02E
:10149000C3F807B000BD80B55C48006850F001009B
:1014A0005A4908605948006810F0010000900098FF
:1014B000002200210B2000F012FC0B2000F024FC85
:1014C00001BD81B05148006850F480004F49086068
:1014D0004E48006810F48000009000984B48006867
:1014E00050F40030494908604848006810F4003062
:1014F000009000984548006850F4802043490860F7
:101500004248006810F480200090009801B07047B5
:1015100000B595B00BA82821FFF7E6FD6846142119
:10152000FFF7E2FD05A81821FFF7DEFD01200B9073
:101530005FF480300C9000200D9001200F9002206D
:1015400012905FF4803013905FF4E01014900BA8B9
:1015500000F0F8FB002801D000F05EF80F200090AA
:1015600002200190002002904FF480600390002040
:1015700004900221684600F0BAFF002801D000F074
:101580004BF841F281000590002007904FF48070E5
:10159000099000200A9005A801F026F9002801D042
:1015A00000F03AF815B000BD80B519481949086037
:1015B0004FF4164017494860002016498860002003
:1015C0001449C8600020134908610C201149486182
:1015D00000201049886100200E49C86100200D4993
:1015E000086200200B4948620A4801F0DDF9002832
:1015F00001D000F011F801BD9C00002000740040F3
:101600007C010020002C0140EC000020141002405E
:1016100000380140180000207047000000B500BFEE
:10162000130096469446103928BFA0E80C50FAD80B
:101630005FEA417C28BF0CC048BF40F8042BC907B3
:1016400028BF20F8022B48BF00F8012B00BD000086
:1016500080B50848006850F0100006490860032073
:1016600000F037FB002001F0EBFCFFF735FB00201A
:1016700002BD00000020024080B5204820490160E2
:10168000204800210160204800210160FFF722FD71
:101690001E49086001F0FAFC01BD80B51C480078C5
:1016A000032803D11A491B4801F02EFD1948007880
:1016B000002813D11648007800280FD0FFF70AFD44
:1016C000154908601248408800EE100AB8EE400A3A
:1016D00001F0EAFC00200E4908700DE0FFF7FAFC6B
:1016E0000B490A790C490968401A824204D201F078
:1016F000F5FC03200649087001BD0000A40100208C
:10170000CDCC4C3EA8010020AC0100209C01002063
:1017100004000020B6010020A001002010B5040044
:10172000002C01D101200EE02079002804D10020F6
:1017300060712000FFF741FB022020710020206132
:1017400001202071002010BD38B40400002000905A
:1017500020680090002905D1009D12F1080045196C
:10176000009504E0009D12F11400451900950098C1
:101770000360002032BC704702005079012801D17B
:1017800002202BE0012050710220107110680068C7
:1017900001238B4018431368186000290CD110688E
:1017A000006810F03C003C2813D11068406850F0ED
:1017B0000100136858600CE01068006810F47010A5
:1017C000B0F5701F05D11068406850F00200136832
:1017D0005860012010710020507100207047F0B453
:1017E00003000025002418681C4EB04201D1002AD5
:1017F000FFD05879012801D102202BE00120587137
:1018000002201871186806681868144FB84209D188
:10181000002A07D140F6FE70904086430D68486864
:10182000054306E040F6FE70904086430D688868E8
:10183000054315FA02F00643186806601868006848
:10184000C0249440A0431C6820600120187100202F
:1018500058710020F0BC7047000000000074004088
:1018600010B50400002C01D1012035E094F83D00B2
:10187000002805D1002084F83C002000FFF7CDFAB5
:10188000022084F83D00211D206800F0E0F80120CE
:1018900084F84800012084F83E00012084F83F00CD
:1018A000012084F84000012084F84100012084F8E0
:1018B0004200012084F84300012084F84400012004
:1018C00084F84500012084F84600012084F8470090
:1018D000012084F83D00002010BD010091F83D007A
:1018E000012801D001202EE0022081F83D00086887
:1018F000DFF8543098420DD00868B0F1804F09D01D
:101900000868DFF84830984204D00868DFF84030B3
:10191000984211D108688368DFF8380003401A0044
:10192000062A0FD0B2F5803F0CD00868006850F04E
:1019300001000B68186005E00868006850F00100BD
:101940000B68186000207047002C01400004004024
:101950000040014007000100F8B504000D0000261A
:1019600094F83C00012801D102206FE0012084F8A6
:101970003C00022084F83D0020688768DFF86001A1
:10198000074037F47F4720688760286800284ED0DA
:1019900010284CD020284AD0302848D040283CD0AD
:1019A000502826D060282ED0702807D0B0F5805F50
:1019B00003D0B0F5005F0FD03EE03FE0EB686A680F
:1019C000A968206800F0C5F82068806850F07700AA
:1019D00007002068876031E0EB686A68A9682068C2
:1019E00000F0B7F82068806850F480402168886073
:1019F00024E0EA686968206800F07EF850212068D9
:101A000000F09FF81AE0EA686968206800F086F83C
:101A10006021206800F095F810E0EA6869682068A5
:101A200000F06AF84021206800F08BF806E0296891
:101A3000206800F086F801E001200600012084F80B
:101A40003D00002084F83C003000C0B2F2BD0368C5
:101A5000DFF89020904206D0B0F1804F03D0DFF83D
:101A60008820904203D133F070034A681343DFF8B3
:101A70007420904212D0B0F1804F0FD0DFF8682070
:101A800090420BD0DFF86420904207D0DFF860204E
:101A9000904203D0DFF85C20904203D133F44073CE
:101AA000CA68134333F080034A69134303608A68AA
:101AB000C2620A688262DFF82C2090420BD0DFF805
:101AC0002C20904207D0DFF82820904203D0DFF886
:101AD0002420904201D10A690263012242617047C9
:101AE00088FFFEFF002C0140000400400040014040
:101AF000004401400048014010B4046A036A5B08D6
:101B00005B000362836933F0F00353EA021334F09D
:101B10000A040C438361046210BC704710B4036A6A
:101B200033F0100303628369046A33F4704353EAA9
:101B3000023334F0A00454EA01148361046210BC3F
:101B40007047836833F0700351F0070213438360DA
:101B5000704730B4846834F47F4452EA010555EA92
:101B600003252C43846030BC7047000030B4020071
:101B700092F83C00012801D1022034E0012082F8D3
:101B80003C00022082F83D001068436810688468B9
:101B90001068164DA84203D133F47003486803431C
:101BA00033F07003086803431068436010680F4DFA
:101BB000A8420BD01068B0F1804F07D010680C4DD0
:101BC000A84203D010680B4DA84205D134F0800420
:101BD0008868044310688460012082F83D0000207A
:101BE00082F83C00002030BC70470000002C01400F
:101BF000000400400040014010F0070349490A6812
:101C00004FF6FF010A40484951EA03210A4345497A
:101C10000A60704743480068C0F30220704740B232
:101C2000002809D4012210F01F018A403F4940B228
:101C300003005B0941F82320704710B440B200282C
:101C400004D40A013A4B40B21A5407E00A01394B56
:101C500040B210F00F04234403F8042C10BC70476A
:101C600070B4030013F00704D4F10700052801D372
:101C7000042001E0D4F10700251D072D01D2002525
:101C800000E0E51E012616FA00F0401E0140A940C2
:101C9000012010FA05F56D1E2A401143080070BCA2
:101CA000704710B50400601EB0F1807F01D30120A1
:101CB0000EE0601E204908600F215FF0FF30FFF743
:101CC000BCFF00201D49086007201D490860002056
:101CD00010BD10B504002000FFF78EFF10BD2DE9E8
:101CE000F04104000D0016000027FFF793FF804627
:101CF000320029004046FFF7B3FF0100200040B248
:101D0000FFF79BFFBDE8F08110B50400200040B252
:101D1000FFF785FF10BD10B504002000FFF7C1FFDD
:101D200010BD00000CED00E00000FA0500E100E04D
:101D300000E400E018ED00E014E000E018E000E04E
:101D400010E000E0F8B50400002C01D10120CDE343
:101D50002078C00740F1ED80DFF85C0A006810F0E1
:101D60000C0004280ED0DFF8500A006810F00C00B8
:101D7000082831D1DFF8400A006810F48030B0F54F
:101D8000803F29D14FF48040B0FA80F050F020001D
:101D9000C0B24009C0B2012803D1DFF8000A0068D0
:101DA0000AE04FF48040B0FA80F04FF48040B0FA7F
:101DB00080F0DFF8080A00684FF48041B1FA81F141
:101DC00011F01F01C840C00740F1B38060680028CF
:101DD00040F0AF80012089E36068B0F5803F08D112
:101DE000DFF8B809006850F48030DFF8B0190860F7
:101DF00038E06068002810D1DFF8A009006830F4EE
:101E00008030DFF898190860DFF89009006830F436
:101E10008020DFF88819086024E06068B0F5A02F02
:101E200010D1DFF87809006850F48020DFF86C19D1
:101E30000860DFF86809006850F48030DFF85C194A
:101E400008600FE0DFF85409006830F48030DFF8F4
:101E50004C190860DFF84409006830F48020DFF88E
:101E60003C190860DFF84809016809090901A06800
:101E70000143DFF83C090160606800282CD0FFF7BF
:101E800029F905004FF48040B0FA80F050F02000AE
:101E9000C0B24009C0B2012803D1DFF800090068D0
:101EA0000AE04FF48040B0FA80F04FF48040B0FA7E
:101EB00080F0DFF8080900684FF48041B1FA81F141
:101EC00011F01F01C840C00733D4FFF703F9401BCE
:101ED0006528D7D3032009E3FFF7FCF805004FF48A
:101EE0008040B0FA80F050F02000C0B24009C0B28B
:101EF000012803D1DFF8A40800680AE04FF480400D
:101F0000B0FA80F04FF48040B0FA80F0DFF8AC080F
:101F100000684FF48041B1FA81F111F01F01C8400F
:101F2000C00706D5FFF7D6F8401B6528D7D3032096
:101F3000DCE22078800740F1CD80DFF87C08006883
:101F400010F00C0F0BD0DFF87008006810F00C00D8
:101F500008283DD1DFF860080068C00338D45FF07E
:101F60008040B0FA80F050F02000C0B24009C0B20A
:101F7000012803D1DFF8240800680AE05FF0804000
:101F8000B0FA80F05FF08040B0FA80F0DFF82C0803
:101F900000685FF08041B1FA81F111F01F01C84083
:101FA000C00704D52069012801D001209EE2DFF896
:101FB000EC0700685FF0F851B1FA81F130F0F800F9
:101FC000626912FA01F10843DFF8D017086081E076
:101FD0002069002847D001205FF00041B1FA81F16B
:101FE000DFF8DC2712EB81021060FFF773F80500C1
:101FF0005FF08040B0FA80F050F02000C0B240099D
:10200000C0B2012803D1DFF8940700680AE05FF04E
:102010008040B0FA80F05FF08040B0FA80F0DFF8E6
:102020009C0700685FF08041B1FA81F111F01F0157
:10203000C840C00706D4FFF74DF8401B0328D7D38C
:10204000032053E2DFF8540700685FF0F851B1FA5B
:1020500081F130F0F800626912FA01F10843DFF80B
:102060003C17086036E000205FF00041B1FA81F1D2
:10207000DFF84C2712EB81021060FFF72BF8050008
:102080005FF08040B0FA80F050F02000C0B240090C
:10209000C0B2012803D1DFF8040700680AE05FF04E
:1020A0008040B0FA80F05FF08040B0FA80F0DFF856
:1020B0000C0700685FF08041B1FA81F111F01F0157
:1020C000C840C00706D5FFF705F8401B0328D7D343
:1020D00003200BE2207800075AD5A06900282BD0F6
:1020E00001205FF00041B1FA81F1DFF8C82612EB60
:1020F00081021060FEF7EEFF05005FF08040B0FA4D
:1021000080F05FF08040B0FA80F05FF08040B0FA7D
:1021100080F0DFF8A80600685FF08041B1FA81F135
:1021200011F01F01C840C00732D4FEF7D3FF401B97
:102130000328E2D30320D9E100205FF00041B1FA87
:1021400081F1DFF8702612EB81021060FEF7C2FF0A
:1021500005005FF08040B0FA80F05FF08040B0FA98
:1021600080F05FF08040B0FA80F0DFF85006006841
:102170005FF08041B1FA81F111F01F01C840C00742
:1021800006D5FEF7A7FF401B0328E2D30320ADE1ED
:102190002078400740F1E3800027DFF82806006838
:1021A000C00010D4DFF81C06006850F08050DFF843
:1021B00014160860DFF80C06006810F080500090DC
:1021C000009801200700DFF800060068C00516D45B
:1021D000DFF8F405006850F48070DFF8EC15086053
:1021E000FEF778FF0500DFF8E0050068C00506D4BB
:1021F000FEF770FF401B6528F5D3032076E1E06809
:10220000012808D1DFF8C405006850F00100DFF8AC
:10221000BC15086037E0E068002810D1DFF8AC0595
:10222000006840084000DFF8A4150860DFF89C054E
:10223000006830F00400DFF89415086023E0E068DF
:10224000052810D1DFF88405006850F00400DFF89D
:102250007C150860DFF87405006850F00100DFF8B5
:102260006C1508600FE0DFF8640500684008400066
:10227000DFF858150860DFF85405006830F00400F6
:10228000DFF848150860E06800282ED0FEF722FF2E
:1022900005005FF08040B0FA80F05FF08040B0FA57
:1022A00080F050F04000C0B24009C0B2022803D113
:1022B000DFF81805006806E05FF08040B0FA80F0B3
:1022C000DFF8F80400685FF08041B1FA81F111F0A5
:1022D0001F01C840C00737D4FEF7FCFE401B41F287
:1022E00089318842D5D3032000E1FEF7F3FE0500D3
:1022F0005FF08040B0FA80F05FF08040B0FA80F08C
:1023000050F04000C0B24009C0B2022803D1DFF84B
:10231000BC04006806E05FF08040B0FA80F0DFF8AF
:102320009C0400685FF08041B1FA81F111F01F0157
:10233000C840C00708D5FEF7CDFE401B41F28931E9
:102340008842D5D30320D1E0FFB2012F07D1DFF8B7
:102350007404006830F08050DFF868140860E069A9
:10236000002800F0C280DFF85004006810F00C0074
:10237000082800F0A580E06902286FD100208021A4
:10238000B1FA81F1DFF8382412EB81021060FEF718
:10239000A1FE07004020B0FA80F050F02000C0B24B
:1023A0004009C0B2012803D1DFF8F003006808E05B
:1023B0004020B0FA80F04020B0FA80F0DFF8FC0353
:1023C00000684021B1FA81F111F01F01C840C00737
:1023D00006D5FEF77FFEC01B0328DBD3032085E074
:1023E000DFF8D403016831F47411606A0143206A94
:1023F0000143DFF8C403016001208021B1FA81F1BB
:10240000DFF8BC2312EB81021060FEF763FE0500CB
:102410004020B0FA80F050F02000C0B24009C0B2B5
:10242000012803D1DFF87403006808E04020B0FA07
:1024300080F04020B0FA80F0DFF88003006840218F
:10244000B1FA81F111F01F01C840C0074DD4FEF769
:1024500041FE401B0328DBD3032047E000208021FE
:10246000B1FA81F1DFF8582312EB81021060FEF718
:1024700031FE05004020B0FA80F050F02000C0B2DC
:102480004009C0B2012803D1DFF81003006808E05A
:102490004020B0FA80F04020B0FA80F0DFF81C0352
:1024A00000684021B1FA81F111F01F01C840C00756
:1024B0001BD5FEF70FFE401B0328DBD3032015E0DE
:1024C000E069012801D1012010E0DFF8EC0200688A
:1024D000060016F48030216A884204D116F4701088
:1024E000616A884201D0012000E00020F2BD70B591
:1024F00004000D000026002C01D10120F2E0DFF8DD
:10250000D002006810F00700A84211D2DFF8C00224
:102510000068C008C0002843DFF8B4120860DFF884
:10252000B002006810F00700A84201D00120D9E0F5
:102530002078800707D59A48016831F0F001A0683B
:102540000143974801602078C00740F18A806068A5
:10255000012823D14FF48040B0FA80F050F02000E1
:10256000C0B24009C0B2012802D18C4800680AE01C
:102570004FF48040B0FA80F04FF48040B0FA80F021
:10258000DFF8380200684FF48041B1FA81F111F0B0
:102590001F01C840C00748D40120A3E0606802289A
:1025A0001FD14020B0FA80F050F02000C0B24009A6
:1025B000C0B2012802D17948006808E04020B0FA92
:1025C00080F04020B0FA80F0DFF8F0010068402190
:1025D000B1FA81F111F01F01C840C00725D40120D4
:1025E00080E05FF08040B0FA80F050F02000C0B290
:1025F0004009C0B2012802D1684800680AE05FF0D3
:102600008040B0FA80F05FF08040B0FA80F0DFF8F0
:10261000AC0100685FF08041B1FA81F111F01F0157
:10262000C840C00701D401205CE05D48016889080A
:102630008900606801435A480160FEF74BFD0600BF
:102640005748006810F00C006168B0EB810F08D0AB
:10265000FEF740FD801B41F289318842F0D3032010
:1026600040E05B48006810F0070085420ED25848F1
:102670000068C008C00028435549086054480068F5
:1026800010F00700A84201D001202BE0207840077D
:1026900007D54348016831F4E061E06801434048F0
:1026A00001602078000708D53D48006830F460508C
:1026B000216950EAC1003A49086000F014F838492D
:1026C0000968444A11F0F0015FF07063B3FA83F3D4
:1026D000D940515CC840344908603448006800F073
:1026E000AFFC002070BDF0B40020002100220023C8
:1026F00000242B4D2D6815F00C06042E02D0082E58
:1027000002D025E0274824E0334815F470164FF432
:102710007057B7FA87F7FE40805D030024480068D1
:102720002E4E10F00F005FF07047B7FA87F7F840B1
:10273000305C0100E80305D51A48B0FBF1F05843BE
:10274000020003E0264800FB03F00200100000E056
:102750001448F0BC704714480068704780B5FFF714
:10276000FAFF0F4909681F4A11F4E0615FF4600342
:10277000B3FA83F3D940515CC84002BD80B5FFF77E
:10278000EAFF07490968174A11F460515FF4E01342
:10279000B3FA83F3D940515CC84002BD0010024037
:1027A0000410024000127A00100000200C000020EB
:1027B0002C100240800442420410024024100240C7
:1027C000000042421C1002400070004020100240F5
:1027D000002002402C3500080C3500081C3500088C
:1027E00000093D0060350008F8B50500002600240A
:1027F00000272868C00340F19A80DFF89001006844
:10280000C00010D4DFF88401006850F08050DFF879
:102810007C110860DFF87401006810F080500090AF
:10282000009801200700DFF868010068C00516D491
:10283000DFF85C01006850F48070DFF85411086024
:10284000FEF748FC0600DFF848010068C00506D422
:10285000FEF740FC801B6528F5D3032094E0DFF8E9
:102860003401006810F440700400002C4ED06868F9
:1028700010F44070844249D0DFF81801006830F449
:102880004070040001204FF40041B1FA81F1DFF8FB
:10289000082112EB8102106000204FF40041B1FAD0
:1028A00081F13D4A12EB810210603A480460E00772
:1028B0002CD5FEF70FFC06005FF08040B0FA80F0E8
:1028C0005FF08040B0FA80F050F04000C0B24009A4
:1028D000C0B2022802D12F48006805E05FF08040B6
:1028E000B0FA80F02D4800685FF08041B1FA81F1C4
:1028F00011F01F01C840C00708D4FEF7EBFB801B96
:1029000041F289318842D7D303203DE02148016854
:1029100031F44071686801431E480160FFB2012F25
:1029200005D11A48006830F08050184908602878AE
:10293000C00707D51A48016889088900A8680143BB
:10294000174801602878800607D51548016831F0DE
:102950001001E8680143124801602878000607D595
:102960001048016831F4F871286901430D4801608D
:102970002868C00407D50A48016831F48071686985
:102980000143074801600020F2BD00001C10024016
:102990000070004020100240000442422410024017
:1029A000301002402C10024010B50400002C01D160
:1029B000012035E0A0690028FFD1A06F002805D1D3
:1029C000002084F874002000FEF73AFA2420A06763
:1029D000206800684008400021680860200000F07E
:1029E00032F9012801D101201AE0606A002802D0E2
:1029F000200000F00DFA2068406830F49040216813
:102A000048602068806830F02A002168886020686B
:102A1000006850F0010021680860200000F065FAAD
:102A200010BD2DE9FC4707000E0015009846B86F51
:102A3000202860D1002E02D0ADB2002D01D101209E
:102A40005AE097F87400012801D1022054E00120D7
:102A500087F874000020C7F880002120B867FEF7CF
:102A600039FB8146A7F85050A7F85250B868B0F526
:102A7000805F05D13869002802D10024B24602E007
:102A800034005FF0000A002087F87400B7F85200A5
:102A9000002820D0CDF800804B460022802138004D
:102AA00000F05AFA002801D0032025E0002C08D1BC
:102AB000BAF80000C005C00D396808851AF1020A8D
:102AC00003E0207839680885641CB7F85200401E7E
:102AD000A7F85200DAE7CDF800804B4600224021EB
:102AE000380000F039FA002801D0032004E020204B
:102AF000B867002000E00220BDE8F6872DE9F84F16
:102B000083460D0016001F00DBF87C00202840F0F3
:102B10009780002D02D0B6B2002E01D1012090E0A6
:102B20009BF87400012801D102208AE001208BF873
:102B300074000020CBF880002220CBF87C0000201D
:102B4000CBF86000FEF7C6FA8046ABF85860ABF8E9
:102B50005A60DBF80800B0F5805F0CD1DBF810009C
:102B6000002804D140F2FF10ABF85C0027E0FF2002
:102B7000ABF85C0023E0DBF8080000280BD1DBF8A1
:102B80001000002803D1FF20ABF85C0017E07F2085
:102B9000ABF85C0013E0DBF80800B0F1805F0BD10C
:102BA000DBF81000002803D17F20ABF85C0006E0C2
:102BB0003F20ABF85C0002E00020ABF85C00BBF803
:102BC0005C90DBF80800B0F5805F06D1DBF8100000
:102BD000002802D10024AA4602E02C005FF0000A7F
:102BE00000208BF87400BBF85A00002823D000970F
:102BF000434600222021584600F0AEF9002801D0BB
:102C000003201EE0002C09D1DBF80000808C19EABB
:102C10000000AAF800001AF1020A06E0DBF8000042
:102C2000808C19EA00002070641CBBF85A00401E1A
:102C3000ABF85A00D7E72020CBF87C00002000E05A
:102C40000220BDE8F28F2DE9F84304000027A168B7
:102C50002069014360690143E0690143206802681B
:102C6000654802400A43206802602068426832F4E6
:102C70004052E068024320684260D4F81880206A1D
:102C800050EA08082068806830F4306058EA000094
:102C9000226890602068594A90421AD158480068CA
:102CA00010F00300002805D002280CD008D3032818
:102CB00003D00BE05FF000091BE05FF0020918E0B1
:102CC0005FF0040915E05FF0080912E05FF01009F9
:102CD0000FE020684B49884202D15FF0000908E00C
:102CE00020684949884202D15FF0000901E05FF0A5
:102CF0001009E069B0F5004F3FD15FFA89F9484605
:102D0000002808D001280AD002280CD004280CD0B2
:102D100008280ED010E0FFF721FD01000FE0FFF7BB
:102D20002DFD01000BE0394909E0FFF7DCFC010053
:102D300005E04FF4004102E00021012007000029D6
:102D400051D06068400810EB41006268B0FBF2F0BF
:102D500080B20600102E0DD3B6F5803F0AD24FF692
:102D6000F0723240C6F3420002431500ADB2206853
:102D7000C56038E00120070035E05FFA89F9484670
:102D8000002808D001280AD002280CD004280CD032
:102D900008280ED010E0FFF7E1FC01000FE0FFF77C
:102DA000EDFC01000BE0194909E0FFF79CFC010074
:102DB00005E04FF4004102E0002101200700002956
:102DC00011D0606811EB50006268B0FBF2F080B285
:102DD0000600102E05D3B6F5803F02D22068C660EB
:102DE00001E001200700002060660020A066380096
:102DF000C0B2BDE8F2830000F369FFEF0038014084
:102E000030100240004400400048004000127A00A8
:102E100090F82410C90707D501684A6832F40032D7
:102E2000816A0A4301684A6090F82410890707D52F
:102E300001684A6832F48032C16A0A4301684A6014
:102E400090F82410490707D501684A6832F48022B7
:102E5000016B0A4301684A6090F82410090707D5FE
:102E600001684A6832F40042416B0A4301684A60D3
:102E700090F82410C90607D501688A6832F4805298
:102E8000816B0A4301688A6090F82410890607D58F
:102E900001688A6832F40052C16B0A4301688A6093
:102EA00090F82410490613D501684A6832F480125C
:102EB000016C0A4301684A60016CB1F5801F07D1BB
:102EC00001684A6832F4C002416C0A4301684A60F2
:102ED00090F82410090607D501684A6832F40022E8
:102EE000816C0A4301684A60704738B504000020CD
:102EF000C4F88000FEF7EEF80500206800680007BF
:102F00000DD57FF07E4000902B0000225FF4001171
:102F1000200000F021F8002801D003201BE02068E9
:102F2000006840070DD57FF07E4000902B00002206
:102F30005FF48001200000F00FF8002801D003208A
:102F400009E02020A0672020E06700202066002004
:102F500084F87400002032BD2DE9F04105000E0018
:102F600017009846069C2868C0693040B04201D1DD
:102F7000012000E00020FFB2B8425DD114F1010F42
:102F8000F1D0FEF7A7F8B0EB0800844201D3002C83
:102F900021D1286850E8000F30F4D07001002A6871
:102FA00042E800100028F4D12868083050E8000FEB
:102FB000400840000100286810F1080242E80010B3
:102FC0000028F1D12020A8672020E867002085F89C
:102FD0007400032031E0286800684007C3D52868E2
:102FE000C0690005BFD54FF40060296808622868F1
:102FF00050E8000F30F4D07001002A6842E8001059
:103000000028F4D12868083050E8000F400840003C
:103010000100286810F1080242E800100028F1D1F0
:103020002020A8672020E8672020C5F88000002025
:1030300085F87400032000E00020BDE8F081000066
:1030400010B504004FF47A700D490978B0FBF1F027
:103050000C490968B1FBF0F0FEF75DFE002801D0D5
:1030600001200CE0102C09D2002221005FF0FF307B
:10307000FEF735FE04480460002000E0012010BD8A
:1030800014000020100000200C00002080B500215A
:103090001848FDF749FA1848FEF71FFC02221749A5
:1030A0001448FDF792F901BD80B52DED028BB0EE0D
:1030B000408A134890ED000A28EE000AFDEEC08A0F
:1030C00018EE903A002200210E48FEF73DFB002149
:1030D0000C48FEF751FBBDEC028B01BD80B500230F
:1030E000002200210748FEF72FFB00210548FEF7CC
:1030F00043FB01BD9C000020EC0000209801002053
:10310000000000207C0100207CB504000D0000269A
:10311000052020702078002834D0F6B2032E31DA52
:103120006423082262496348FFF7E8FC002803D0C3
:10313000761C05202070EDE708215D4800F044F87A
:103140002070C0B200280AD0761C207800F07CF8ED
:10315000594908705849594800F015F8DAE72078BD
:1031600000F072F8544908705349544800F00BF8C5
:103170004F49684600F07FF828006946062200F0B3
:10318000A9F8C7E773BD70B504000D00002605203F
:1031900020702078002816D0F6B2032E13DA6423AC
:1031A000082229004348FFF73CFC002801D0761C88
:1031B000EFE70821280000F007F82070C0B20028CF
:1031C000E7D0761CE5E770BD38B504000D00082D8A
:1031D00001D001201DE02900C9B2200000F01AF83A
:1031E000012801D0022014E06078FF2801D10120DD
:1031F0000FE06078FE2801D102200AE06078FD2807
:1032000001D1032005E06078FC2801D1042000E012
:10321000002032BD30B40200002300200024E4B2BC
:10322000C9B2481E844204DAE4B2105DC318641CBB
:10323000F5E71800E4B2155DC0B2A84201D1012043
:1032400000E0002030BC70470100C9B2012907D05E
:1032500010D3032908D005D3052909D006D309E0E6
:10326000FF2007E0FE2005E0FD2003E0FC2001E058
:10327000FB20FFE770473EB504000D001048D0E981
:103280000023CDE90023287806280AD100208DF8F4
:103290000000280000F016F8ADF8020028798DF83B
:1032A000040020006946062200F014F837BD000033
:1032B0009001002018000020B4010020B50100207A
:1032C00058350008010000228B78C87850EA0320A6
:1032D00080B2704762B38B0708D0521E11F8013BD1
:1032E00000F8013B00F024808B07F6D1830740F003
:1032F000208000BF103A07D330B4B1E83810103A3C
:10330000A0E83810F9D230BC530724BFB1E8081048
:10331000A0E8081044BF51F8043B40F8043BD20732
:1033200024BF31F8022B20F8022B44BF0B78037026
:103330007047121F17D35B0009D151F8043B20F8E6
:10334000023B1B0C121F20F8023BF6D20BE051F897
:10335000043B00F8013B1B0A20F8023B1B0C121F28
:1033600000F8013BF3D238BF121D521E24BF11F8E2
:10337000013B00F8013BF8D8704719E050F8042BE6
:10338000D30744BFA9F101039A18091F0023042998
:1033900042F8043BF9D25FEA817C134604D54FF032
:1033A000000CA2F800C09B1CC90744BF0021197083
:1033B00050F8041B0029E1D1704710B450F8041BE9
:1033C00079B10268436802440830DC0744BFA9F1C0
:1033D0000104E31852F8044B43F8044B091FF9D1D8
:1033E000ECE710BC704700007047FEE7FEE7FEE721
:1033F000FEE770477047704780B500F009F801BDDF
:1034000080B50248FDF7D9FD01BD0000380100205C
:10341000034800680349097840180149086070476B
:10342000B00100201400002010B50749794418317C
:10343000064C7C44163404E00A68081D1144884791
:103440000146A142F8D110BD2C0000004C00000044
:103450004EF68851CEF20001086840F47000086012
:10346000BFF34F8FBFF36F8F4FF00070E1EE100A84
:103470007047000007FFFFFFA001000018000020B8
:103480000000000037FFFFFF18000000540000009C
:10349000000000200000000000F00DF8002801D01E
:1034A000FFF7C2FFAFF300800020AFF30080FDF70D
:1034B0000BFF00F002F80120704700F001B8000097
:1034C0000746384600F002F8FBE7000080B5AFF38E
:1034D0000080024A11001820ABBEFBE72600020064
:1034E0007B74AA44030000000000000010000000EC
:1034F00000127A00010000000348006850F47000D8
:10350000014908607047000088ED00E002030405EF
:10351000060708090A0B0C0D0E0F10100102030418
:1035200005060708090A0B0C0D0E0F10000000001D
:103530000000000001020304060708090148804753
:1035400001480047F93400084D350008AFF300800A
:10355000FFF77EFFFFF7A0FF030000000000000060
:103560000000000001020304FFF7FEBFFFF7FEBFEB
:10357000FFF7FEBFFFF7FEBFFFF7FEBFFFF7FEBF7F
:10358000FFF7FEBFFFF7FEBFFFF7FEBFFFF7FEBF6F
:10359000FFF7FEBFFFF7FEBFFFF7FEBFFFF7FEBF5F
:1035A000FFF7FEBFFFF7FEBFFFF7FEBFFFF7FEBF4F
:1035B000FFF7FEBFFFF7FEBFFFF7FEBFFFF7FEBF3F
:1035C000FFF7FEBFFFF7FEBFFFF7FEBFFFF7FEBF2F
:1035D000FFF7FEBFFFF7FEBFFFF7FEBFFFF7FEBF1F
:1035E000FFF7FEBFFFF7FEBFFFF7FEBFFFF7FEBF0F
:1035F000FFF7FEBFFFF7FEBFFFF7FEBFFFF7FEBFFF
:10360000FFF7FEBFFFF7FEBFFFF7FEBFFFF7FEBFEE
:040000050800354D6D
:00000001FF
