:020000040800F2
:10000000E005002025410008C53F0008C73F000863
:10001000C93F0008CB3F0008CD3F000800000000AA
:10002000000000000000000000000000CF3F0008BA
:10003000D13F000800000000D33F0008D53F000872
:1000400055410008594100085D4100086141000820
:1000500065410008694100086D41000871410008D0
:1000600075410008794100087D410008DD3F000826
:100070008141000885410008894100088D41000840
:100080009141000895410008994100089D410008F0
:10009000A1410008A5410008A9410008AD410008A0
:1000A000B1410008B5410008B9410008BD41000850
:1000B000C1410008C541000800000000C941000816
:1000C000CD4100080000000000000000D141000800
:1000D00000000000D5410008D9410008DD410008BA
:1000E000E1410008E54100080000000000000000B8
:1000F0000000000000000000000000000000000000
:1001000000000000000000000000000000000000EF
:100110000000000000000000E9410008ED41000877
:1001200000000000000000000000000000000000CF
:1001300000000000000000000000000000000000BF
:10014000F1410008F5410008000000000000000037
:10015000000000000000000000000000000000009F
:10016000000000000000000000000000000000008F
:10017000000000000000000000000000000000007F
:1001800000000000F9410008F0B595B0050000241A
:10019000002700200090002D01D1012013E12869E3
:1001A000002802D095F820000028286CC00653D4FF
:1001B000286C00283CD1002068640020E8640020FE
:1001C000A864002085F83C00280000F0A0FD286805
:1001D0008068C0002CD4280000F02CFD0400286C9E
:1001E000C00625D4E4B2002C22D1286C30F488500B
:1001F00050F0020028642868806830F04050296878
:1002000088602868806850F0805029688860DFF82E
:1002100000030068DFF8FC12B0FBF1F10A20414353
:1002200000910098002803D00098401E0090F8E745
:1002300028688068C00003D52868806880000BD5D6
:10024000286C30F0020050F010002864686C50F008
:100250000100686401200400286CC00600F1A98038
:10026000E4B2002C40F0A58028688068400700F1C7
:10027000A080286C30F4807050F002002864DFF811
:10028000980206002868B0F1A04F04D1DFF88C0274
:100290000190019803E05FF0A04001900198286868
:1002A000806810F00300012804D12868006810F06D
:1002B000010000E00020002816D1019800280DD090
:1002C0000198806810F00300012804D101980068AB
:1002D00010F0010000E00020002805D1B16831F4E1
:1002E000403168680143B160686B012802D04FF467
:1002F000805100E00021687E51EA4031E868014306
:10030000A86801430F4395F82000012813D1687EA7
:10031000002806D1686A401E400450F4803007432C
:1003200009E0286C30F0020050F020002864686C6E
:1003300050F001006864A86A012803D0A96AE86A3D
:1003400001430F432868806810F00C0F0DD1286816
:10035000C168DFF8CC0101402868C160287E95F8AB
:100360003010490051EA80310F432868C168DFF836
:10037000B401014039432868C1602869012809D1C6
:100380002868006B00090001E969491E08432968D3
:10039000086305E02868006B00090001296808630C
:1003A00000206864286C30F0020050F001002864DE
:1003B00007E0286C30F0020050F0100028640120A3
:1003C00004002000C0B215B0F0BD2DE9F0410500D9
:1003D0000E0017005FF0000828688068400700F1F1
:1003E000918095F83C00012801D102208DE0012088
:1003F00085F83C00DFF8DC01006810F01F0F7CD1AD
:10040000280000F0D4FB0400E4B2002C71D1296C68
:10041000DFF8BC01014051F480712964DFF8B401B8
:10042000006810F01F0F03D02868B0F1A04F0ED164
:10043000286C30F4801028642868C068800121D5B9
:10044000286C30F4005050F4805028641AE0286C76
:1004500050F4801028642868B0F1A04F03D02868B9
:100460002E49884205D1DFF87001006810F0007055
:1004700000E00020002805D0286C30F4005050F433
:1004800080502864286CC00404D5686C30F00600E5
:10049000686401E000206864002085F83C00DFF813
:1004A0003C01A96B8862DFF83801A96BC862DFF8EC
:1004B0003401A96B08631C2029680860286840681B
:1004C00050F01000296848602868C06850F00100AA
:1004D0002968C8603B003200286810F14001A86B11
:1004E00000F031FD2868806850F0040029688860B9
:1004F00009E0002085F83C0005E00124002085F893
:100500003C0000E002242000C0B2BDE8F081000001
:100510001C00002040420F0000030050000100506A
:10052000FDBFFFFF07C0F0FF2DE9F04106000F00FF
:100530005FF0000896F83C00012801D1022045E058
:10054000012086F83C00300000F074FB0400E4B2A7
:10055000002C36D1012030643068806830F0804053
:1005600031688860012F05D13068806850F0804084
:10057000316888603068806850F000403168886079
:1005800000F0BAFD050030688068002813D500F03F
:10059000B3FD401B0B28F6D3306880680028F2D5E5
:1005A000306C30F0020050F010003064002086F80B
:1005B0003C0001200AE0306C30F0020050F00100F5
:1005C0003064002086F83C002000C0B2BDE8F08115
:1005D000FEF1FFFF080300500C000050350B00082F
:1005E000830B0008910B0008F0B495B004000025BF
:1005F00000200090C8680128FFD194F83C00012831
:1006000001D10220FDE1012084F83C0020688068CF
:10061000400700F1EB814868052816D22068066B78
:100620001F27D1F804C0062000FB0CFC17FA0CF7BA
:10063000BE430F68D1F804C0062000FB0CFC17FA7B
:100640000CF73E432068066349E048680A2816D242
:100650002068466B1F274868401F5FF0060C10FBA0
:100660000CF08740BE430F684868401F5FF0060CDF
:1006700010FB0CF087403E43206846632FE048683B
:100680000F2816D22068866B1F2748680A385FF04B
:10069000060C10FB0CF08740BE430F6848680A3810
:1006A0005FF0060C10FB0CF087403E432068866329
:1006B00015E02068C66B1F2748680F385FF0060CEE
:1006C00010FB0CF08740BE430F6848680F385FF09E
:1006D000060C10FB0CF087403E432068C663206880
:1006E000806810F00C0F40F0B38008680A2816D319
:1006F00020688669072708680A385FF0030C10FB3A
:100700000CF08740BE438F6808680A385FF0030C1E
:1007100010FB0CF087403E432068866115E020689E
:1007200046690727D1F800C0032000FB0CFC17FA2C
:100730000CF7BE438F68D1F800C0032000FB0CFC0F
:1007400017FA0CF73E43206846614E692068C0687E
:10075000C0F3C100C0B240008640330008690128E0
:1007600006D03DD303281FD010D304282AD037E069
:100770002068066EDFF8B8030640086856EA80660F
:100780001E4356F000462068066661E02068466E0B
:10079000DFF89C030640086856EA80661E4356F060
:1007A00000462068466653E02068866EDFF88003C6
:1007B0000640086856EA80661E4356F000462068E8
:1007C000866645E02068C66EDFF864030640086868
:1007D00056EA80661E4356F000462068C66637E03B
:1007E0002068006E10F0F8400E68B0EB866F05D1FF
:1007F0002068006E20F00040266830662068406E59
:1008000010F0F8400E68B0EB866F05D12068406E9E
:1008100020F00040266870662068806E10F0F84076
:100820000E68B0EB866F05D12068806E20F0004026
:100830002668B0662068C06E10F0F8400E68B0EB15
:10084000866F05D12068C06E20F000402668F066F3
:100850002068806810F00300012804D12068006837
:1008600010F0010000E00020002840F0C580C868BA
:1008700001280AD02068D0F8B060012708688740B6
:10088000BE432068C0F8B06039E02068D0F8B0609E
:100890000127086887403E432068C0F8B0600868B8
:1008A0000A2816D3206886690727086809385FF088
:1008B000030C10FB0CF08740BE438F6808680938B2
:1008C0005FF0030C10FB0CF087403E43206886610C
:1008D00015E02068466907270868401C5FF0030C94
:1008E00010FB0CF08740BE438F680868401C5FF027
:1008F000030C10FB0CF087403E4320684661DFF894
:10090000C40302000868102802D1906800020BD5C9
:100910000868112802D19068C00105D5086812281E
:100920006AD19068400267D42068B0F1A04F03D12B
:1009300035480190019803E05FF0A04001900198D4
:100940002068806810F00300012804D12068006846
:1009500010F0010000E00020002840D1019800289C
:100960000DD00198806810F00300012804D101988F
:10097000006810F0010000E0002000282FD1086876
:10098000102818D12068B0F1A04F14D1906850F40D
:1009900000009060DFF830030068DFF83063B0FBE0
:1009A000F6F60A20464300960098002824D00098C6
:1009B000401E0090F8E70868112808D12068B0F1BF
:1009C000A04F04D1906850F08070906014E00868E7
:1009D000122811D1906850F4800090600CE0206CD7
:1009E00050F0200020640120050005E0206C50F04C
:1009F0002000206401200500002084F83C0028002D
:100A0000C0B215B0F0BC70470001005030B494B0D3
:100A100003000024086800281868B0F1A04F04D132
:100A2000DFF8AC020090009803E05FF0A040009077
:100A300000980098002801D1012075E093F83C004F
:100A4000012801D102206FE0012083F83C001868E2
:100A5000806840075DD400988068400759D4DFF86B
:100A600064020200086800282ED0956835F46045BD
:100A70004868054393F8300055EA4035956018689A
:100A8000806810F00300012804D11868006810F095
:100A9000010000E00020002841D10098806810F09B
:100AA0000300012804D10098006810F0010000E064
:100AB0000020002833D19568864805400868054322
:100AC0008868054395602AE0906830F46040906043
:100AD0001868806810F00300012804D118680068C5
:100AE00010F0010000E00020002818D10098806874
:100AF00010F00300012804D10098006810F00100F4
:100B000000E0002000280AD19568724805409560F1
:100B100005E0186C50F0200018640120040000204B
:100B200083F83C002000C0B214B030BC7047000015
:100B300000F0FF8338B50400656A286C10F0500F90
:100B40001AD1286C50F4007028642868C06810F42A
:100B5000406F0DD1687E00280AD1286C30F4807077
:100B60002864286CC00403D4286C50F00100286469
:100B7000280000F0C7FA03E02000A96B096B884742
:100B800031BD38B50400656A280000F0BCFA31BDFB
:100B900038B50400656A286C50F040002864686C21
:100BA00050F004006864280000F0AEFA31BD38B59A
:100BB000040000252068806810F00300012804D19B
:100BC0002068006810F0010000E0002000282FD10C
:100BD000206880686FF39E10002809D0206C50F0C8
:100BE00010002064606C50F001006064012020E07F
:100BF0002068806850F001002168886000F07CFA6D
:100C0000050020680068C00712D400F075FA401B88
:100C10000328F6D320680068C007F2D4206C50F097
:100C200010002064606C50F001006064012000E05E
:100C3000002032BD38B5040000252068806810F01F
:100C40000300012804D12068006810F0010000E0D2
:100C50000020002833D02068806810F00D000128A3
:100C60000CD12068806850F0020021688860032061
:100C70002168086000F040FA050009E0206C50F09F
:100C800010002064606C50F001006064012017E0E7
:100C900020688068C00712D500F02EFA401B032898
:100CA000F6D320688068C007F2D5206C50F01000A1
:100CB0002064606C50F001006064012000E00020BE
:100CC00032BD0000000300501C00002040420F0015
:100CD00000010050E0F0FFFF81B07D48006850F057
:100CE00001007B4908607A48006810F0010000901C
:100CF00000987848006850F0805076490860754840
:100D0000006810F080500090009801B0704710B556
:100D100086B0040001A8142100F0F8F92068B0F1B1
:100D2000A04F48D16C48006850F080506A49086074
:100D30006948006810F0805000900098664800688C
:100D400050F40030644908606348006810F40030D3
:100D5000009000980320019003200290002003904F
:100D600001A95FF0904000F0D5F95C485C4908604B
:100D700000205B494860002059498860802058491C
:100D8000C8604FF48070564908614FF48060544940
:100D900048612020524988614FF440505049C86151
:100DA0004F4800F0A5F8002801D000F0E9FC4C48BD
:100DB000A0634B48446206B010BD10B586B0040075
:100DC00001A8142100F0A2F920684649884222D1E6
:100DD0004048006850F000503E4908603D480068B7
:100DE00010F00050009000983B48006850F400302C
:100DF000394908603848006810F4003000900098C5
:100E000010200190032002900020039001A95FF0C0
:100E1000904000F07FF906B010BD81B00168324A01
:100E200091420BD12A49096851F40061284A1160A6
:100E30002749096811F400610091009901B07047D9
:100E400010B586B0040001A8142100F05FF92068F5
:100E50002649884227D11E48006850F480401C492A
:100E600008601B48006810F48040009000981A4801
:100E7000006850F40030184908601748006810F402
:100E80000030009000984FF4C06001900220029062
:100E900000200390032004900720059001A95FF033
:100EA000904000F037F906B010BD10B5040020687E
:100EB0000E4988420BD10648006830F4804004494E
:100EC00008604FF4C0615FF0904000F0FDF910BD84
:100ED000181002401C10024014100240080002408A
:100EE0004401002000740040002C01400038014003
:100EF00070B504000025002C01D1012022E0022061
:100F000084F82100206806686FF30D166168A068F8
:100F10000143E06801432069014360690143A0691E
:100F20000143E06901430E4320680660200000F0A1
:100F3000D3F80020A063012084F82100002084F869
:100F40002000002070BD2DE9F04104000D001600C6
:100F50001F005FF0000894F82000012801D1022052
:100F60003BE0012084F8200094F8210001282DD1D5
:100F7000022084F821000020A06320680068400857
:100F80004000216808603B0032002900200000F08A
:100F90008DF8E06A002806D02068006850F00E0046
:100FA000216808600BE02068006850F00A002168A2
:100FB00008602068006830F004002168086020683C
:100FC000006850F001002168086004E0002084F807
:100FD0002000022080464046C0B2BDE8F08170B5D6
:100FE0000400E06B0568206806680421206C8140DD
:100FF0000D4217D0700715D520680068800605D40B
:101000002068006830F00400216808600421206C2A
:101010008140E06B4160E06A002846D02000E16A30
:10102000884742E00221206C81400D421DD0B0076C
:101030001BD520680068800608D42068006830F05E
:101040000A0021680860012084F821000221206C38
:101050008140E06B4160002084F82000A06A0028F5
:1010600023D02000A16A88471FE00821206C81401E
:101070000D421AD0300718D52068006830F00E00F5
:10108000216808600121206C8140E06B41600120F3
:10109000A063012084F82100002084F82000206B48
:1010A000002802D02000216B884770BD30B4012594
:1010B000046CA540C46B6560046863604468102CD0
:1010C00004D10468A2600468E16003E00468A160E0
:1010D0000468E26030BC7047026805498A18142130
:1010E000B2FBF1F1890001640249C163704700005D
:1010F000F8FFFDBF0000024001480068704700BFD4
:10110000D40100207047704770470000002200F0B3
:1011100039BB0000F8B4030000250868E840002847
:1011200000F0D08008680126AE4030400200002A5E
:1011300000F0C680087910F00300012804D0087977
:1011400010F00300022818D19E6803272800C0B2BF
:1011500040008740BE43CF682800C0B240008740AF
:101160003E439E6058680127AF40B8434F68C7F3BD
:101170000017AF40384304005C60087910F00300AA
:1011800003280ED0DE6803272800C0B24000874045
:10119000BE438F682800C0B2400087403E43340001
:1011A000DC60087910F00300022818D12800C0087C
:1011B00003EB8000066A0F2715F00700C0B280001D
:1011C0008740BE430F6915F00700C0B2800087401A
:1011D0003E4334002800C00803EB800004621E6810
:1011E00003272800C0B240008740BE430F7917F0A4
:1011F00003072800C0B2400087403E4334001C6013
:10120000486810F4403F5BD07948006850F0010016
:10121000774E30607648006810F00100009000982A
:1012200074482E00B60850F826600F2715F003000A
:10123000C0B280008740BE43B3F1904F01D100247B
:101240000FE06D48834201D101240AE06B488342DC
:1012500001D1022405E06A48834201D1032400E061
:10126000052415F00300C0B2800084402643614885
:101270002C00A40840F824606248006890434C6841
:10128000E40300D510435F4C20605F4C2468944316
:101290004E68B60300D514435B4804605B480068A1
:1012A00090434E68F60200D51043584C2060584CCD
:1012B000246894434E68B60200D514435448046031
:1012C0006D1C2AE7F1BC7047F0B40300002508004C
:1012D000E840002800F089800120A8400840020072
:1012E000002A00F0808043482E00B60850F826609F
:1012F0000F2715F00300C0B2800087403E40340045
:10130000B3F1904F01D100260FE03B48834201D159
:1013100001260AE03948834201D1022605E0384817
:10132000834201D1032600E0052615F00300C0B278
:1013300080008640B44225D1324800689043314E47
:1013400030603148006890432F4E30602F4800686D
:1013500090432E4E30602E48006890432C4E3060F3
:101360000F2615F00300C0B28000864034002148EB
:101370002E00B60850F82600A0431E4E2F00BF08CE
:1013800046F827001E6803272800C0B240008740A7
:10139000BE431E602800C00803EB80062800C0087A
:1013A00003EB8000076A5FF00F0C15F00700C0B276
:1013B00080001CFA00FC37EA0C073762DE6803275E
:1013C0002800C0B240008740BE43DE605868012656
:1013D000AE40B04358609E6803272800C0B240006A
:1013E0008740BE439E606D1C71E7F0BC70470000F3
:1013F000181002400800014000040048000800489E
:10140000000C0048000401400404014008040140AD
:101410000C04014080B500F0CFF900F01DF800F099
:1014200076F900F05EF900F063F800F0CFF800F014
:1014300030F900F0EAF80021C848FFF775F8C8480D
:1014400000F00BFA0222C749C448FEF7BEFF00F0C5
:101450004DFB00F05CFBFCE700B595B00BA8282124
:10146000FFF754FE68461421FFF750FE05A8182127
:10147000FFF74CFE01200B905FF480300C900020B1
:101480000D9001200F90022012905FF48030139095
:101490005FF4E01014900BA800F076FC002801D057
:1014A00000F06EF90F2000900220019000200290C1
:1014B0004FF480600390002004900221684601F000
:1014C00038F8002801D000F05BF941F28100059066
:1014D000002007904FF48070099000200A9005A822
:1014E00001F0A4F9002801D000F04AF915B000BDC0
:1014F00000B589B006A800210022002380E80E0074
:1015000068461821FFF702FE5FF0A040934908608B
:1015100000209249486000209049886001208F494E
:10152000086100208D49487600208C4981F8200010
:101530004FF480608949C8624FF41070874988620F
:1015400000208649C86002208449C861012083497F
:1015500081F8300004208149486100207F490876E5
:1015600000207E4948637D48FEF70EFE002801D02A
:1015700000F006F90020069006A97848FFF746FA21
:10158000002801D000F0FCF801200090012001901B
:10159000002003900020029000200490002005907D
:1015A00069466E48FFF720F8002801D000F0E8F8FF
:1015B000022000900220019069466848FFF714F865
:1015C000002801D000F0DCF809B000BDE0B56846A5
:1015D00000210022002380E80E0063486349086070
:1015E000624801F003FA002801D000F0C9F8002099
:1015F000009002200190002269465C4801F057FAF1
:10160000002801D000F0BCF807BD00B587B003A8E2
:101610001021FFF77BFD684600210022002380E8AF
:101620000E0053484E4908604FF434704C494860EE
:1016300000204B49886001204949C8600020484982
:1016400008610020464948610020454988614448B6
:1016500000F0C6F8002801D000F092F84FF4805056
:10166000039003A93E4800F037F9002801D000F0AC
:1016700087F8202000900020019000200290694609
:10168000374801F055FA002801D000F079F807B08A
:1016900000BD80B53748384908604FF416503649C8
:1016A000486000203449886000203349C860002029
:1016B000314908610C203049486100202E49886179
:1016C00000202D49C86100202B49086200202A49CA
:1016D0004862294801F072FA002801D000F050F861
:1016E00001BD80B52548006850F00100234908601D
:1016F0002248006810F001000090009800220021AC
:101700000B2001F042FE0B2001F054FE01BD81B020
:101710001A48006850F480001849086017480068AB
:1017200010F48000009000981448006850F40030D5
:10173000124908601148006810F4003000900098C9
:101740000E48006850F480200C4908600B4800687F
:1017500010F480200090009801B07047A80000208D
:10176000F8000020D0010020007400408801002013
:10177000002C0140003801402400002014100240D9
:101780007047000000B500BF13009646944610391C
:1017900028BFA0E80C50FAD85FEA417C28BF0CC0F3
:1017A00048BF40F8042BC90728BF20F8022B48BFC8
:1017B00000F8012B00BD000080B50848006850F01B
:1017C000100006490860032001F0D9FD002001F057
:1017D0000FFEFFF781FA002002BD0000002002404A
:1017E00010B50400002C01D1012035E094F83D0033
:1017F000002805D1002084F83C002000FFF70DFBF5
:10180000022084F83D00211D206800F0E0F801204E
:1018100084F84800012084F83E00012084F83F004D
:10182000012084F84000012084F84100012084F860
:101830004200012084F84300012084F84400012084
:1018400084F84500012084F84600012084F8470010
:10185000012084F83D00002010BD010091F83D00FA
:10186000012801D001202EE0022081F83D00086807
:10187000DFF8543098420DD00868B0F1804F09D09D
:101880000868DFF84830984204D00868DFF8403034
:10189000984211D108688368DFF8380003401A00C5
:1018A000062A0FD0B2F5803F0CD00868006850F0CF
:1018B00001000B68186005E00868006850F001003E
:1018C0000B68186000207047002C014000040040A5
:1018D0000040014007000100F8B504000D0000269B
:1018E00094F83C00012801D102206FE0012084F827
:1018F0003C00022084F83D0020688768DFF8600122
:10190000074037F47F4720688760286800284ED05A
:1019100010284CD020284AD0302848D040283CD02D
:10192000502826D060282ED0702807D0B0F5805FD0
:1019300003D0B0F5005F0FD03EE03FE0EB686A688F
:10194000A968206800F0C5F82068806850F077002A
:1019500007002068876031E0EB686A68A968206842
:1019600000F0B7F82068806850F4804021688860F3
:1019700024E0EA686968206800F07EF85021206859
:1019800000F09FF81AE0EA686968206800F086F8BD
:101990006021206800F095F810E0EA686968206826
:1019A00000F06AF84021206800F08BF806E0296812
:1019B000206800F086F801E001200600012084F88C
:1019C0003D00002084F83C003000C0B2F2BD036846
:1019D000DFF89020904206D0B0F1804F03D0DFF8BE
:1019E0008820904203D133F070034A681343DFF834
:1019F0007420904212D0B0F1804F0FD0DFF86820F1
:101A000090420BD0DFF86420904207D0DFF86020CE
:101A1000904203D0DFF85C20904203D133F440734E
:101A2000CA68134333F080034A69134303608A682A
:101A3000C2620A688262DFF82C2090420BD0DFF885
:101A40002C20904207D0DFF82820904203D0DFF806
:101A50002420904201D10A69026301224261704749
:101A600088FFFEFF002C01400004004000400140C0
:101A7000004401400048014010B4046A036A5B0856
:101A80005B000362836933F0F00353EA021334F01E
:101A90000A040C438361046210BC704710B4036AEB
:101AA00033F0100303628369046A33F4704353EA2A
:101AB000023334F0A00454EA01148361046210BCC0
:101AC0007047836833F0700351F00702134383605B
:101AD000704730B4846834F47F4452EA010555EA13
:101AE00003252C43846030BC7047000080B59848C3
:101AF00098490160984800210160984800210160E0
:101B0000FFF7FAFA9649086001F098FC01BD38B574
:101B10002DED028B9349944801F05CFD91480078CB
:101B2000032808D0FFF7E8FA90490968401A4EF6F2
:101B30006121884209D3FFF7DFFA8C49086001F080
:101B4000E0FC032087490870FEE087480078002801
:101B50005BD184480078002857D1824890ED010A73
:101B600001F072FCFFF7C8FA80490860012001F01B
:101B7000EFFE7D480078002839D101F0CFFCB0EEAF
:101B8000408A7848406801F0F7FE02000B0014001C
:101B90001D0018EE100A01F0EFFE754A754B01F0BA
:101BA0000FFF22002B0001F0C7FF20D201F0B6FC8E
:101BB00010EE100A01F0E0FE6D4A6F4B01F000FFDD
:101BC00002000B0014001D006648406801F0D4FEBE
:101BD00022002B0001F0B0FF09D2684B614807C812
:101BE00001F0FFFD6549664801F038FDACE05E4854
:101BF0000078002840F0A8800621604801F090FE9F
:101C00005E495F4801F02AFD9EE0564800780128B1
:101C10004BD1544890ED010A01F038FCFFF76CFA03
:101C200052490860022001F093FE4F4800780028D6
:101C30002ED101F081FC4B48D0ED010AB0EE001A24
:101C400060EE810AB4EE600AF1EE10FA20D501F0E0
:101C500073FC10EE100A01F08FFE02000B0014005E
:101C60001D004048406801F087FE0022454B01F00E
:101C70007BFF22002B0001F05FFF09D23F4B394868
:101C800007C801F0AEFD3D493D4801F0E7FC5BE0CF
:101C900035480078002857D10621384801F040FE29
:101CA0003649374801F0DAFC4EE02E480078022829
:101CB0004AD12C4890ED010A01F006FCFFF71CFA0E
:101CC0002A490860022001F043FE274800780028D6
:101CD0002ED101F051FC2348D0ED010AB0EE001ADC
:101CE00060EE810AB4EE600AF1EE10FA20D501F040
:101CF00043FC10EE100A01F03FFE02000B0014003E
:101D00001D001848406801F037FE00221D4B01F00D
:101D10002BFF22002B0001F00FFF09D2174B1148B7
:101D200007C801F05EFD1549154801F097FC0BE06E
:101D30000D480078002807D10621104801F0F0FD79
:101D40000E490F4801F08AFCBDEC028B31BD00004A
:101D5000C4010020CDCC4C3EC8010020CC010020A5
:101D6000BC0100200C000020D9010020C00100208F
:101D7000BAF3C473B68090BFB680903FB401002020
:101D8000DA0100200000E03FF8B50400002C01D18A
:101D90000120CDE32078C00740F1ED80DFF85C0A38
:101DA000006810F00C0004280ED0DFF8500A00681C
:101DB00010F00C00082831D1DFF8400A006810F458
:101DC0008030B0F5803F29D14FF48040B0FA80F0E8
:101DD00050F02000C0B24009C0B2012803D1DFF8A2
:101DE000000A00680AE04FF48040B0FA80F04FF437
:101DF0008040B0FA80F0DFF8080A00684FF48041B4
:101E0000B1FA81F111F01F01C840C00740F1B38061
:101E10006068002840F0AF80012089E36068B0F579
:101E2000803F08D1DFF8B809006850F48030DFF84F
:101E3000B019086038E06068002810D1DFF8A00908
:101E4000006830F48030DFF898190860DFF89009F6
:101E5000006830F48020DFF88819086024E06068AA
:101E6000B0F5A02F10D1DFF87809006850F4802079
:101E7000DFF86C190860DFF86809006850F48030FA
:101E8000DFF85C1908600FE0DFF85409006830F4EF
:101E90008030DFF84C190860DFF84409006830F43E
:101EA0008020DFF83C190860DFF84809016809095B
:101EB0000901A0680143DFF83C090160606800285F
:101EC0002CD0FFF719F905004FF48040B0FA80F0EC
:101ED00050F02000C0B24009C0B2012803D1DFF8A1
:101EE000000900680AE04FF48040B0FA80F04FF437
:101EF0008040B0FA80F0DFF8080900684FF48041B4
:101F0000B1FA81F111F01F01C840C00733D4FFF7C7
:101F1000F3F8401B6528D7D3032009E3FFF7ECF85B
:101F200005004FF48040B0FA80F050F02000C0B2BD
:101F30004009C0B2012803D1DFF8A40800680AE014
:101F40004FF48040B0FA80F04FF48040B0FA80F057
:101F5000DFF8AC0800684FF48041B1FA81F111F06C
:101F60001F01C840C00706D5FFF7C6F8401B65280B
:101F7000D7D30320DCE22078800740F1CD80DFF862
:101F80007C08006810F00C0F0BD0DFF870080068B8
:101F900010F00C0008283DD1DFF860080068C0038D
:101FA00038D45FF08040B0FA80F050F02000C0B22A
:101FB0004009C0B2012803D1DFF8240800680AE014
:101FC0005FF08040B0FA80F05FF08040B0FA80F0BF
:101FD000DFF82C0800685FF08041B1FA81F111F060
:101FE0001F01C840C00704D52069012801D0012085
:101FF0009EE2DFF8EC0700685FF0F851B1FA81F17A
:1020000030F0F800626912FA01F10843DFF8D017E6
:10201000086081E02069002847D001205FF000417E
:10202000B1FA81F1DFF8DC2712EB81021060FFF7D3
:1020300063F805005FF08040B0FA80F050F02000B7
:10204000C0B24009C0B2012803D1DFF8940700688C
:102050000AE05FF08040B0FA80F05FF08040B0FAB4
:1020600080F0DFF89C0700685FF08041B1FA81F1F1
:1020700011F01F01C840C00706D4FFF73DF8401B10
:102080000328D7D3032053E2DFF8540700685FF03A
:10209000F851B1FA81F130F0F800626912FA01F1F9
:1020A0000843DFF83C17086036E000205FF000418D
:1020B000B1FA81F1DFF84C2712EB81021060FFF7D3
:1020C0001BF805005FF08040B0FA80F050F020006F
:1020D000C0B24009C0B2012803D1DFF8040700688C
:1020E0000AE05FF08040B0FA80F05FF08040B0FA24
:1020F00080F0DFF80C0700685FF08041B1FA81F1F1
:1021000011F01F01C840C00706D5FEF7F5FF401BC0
:102110000328D7D303200BE2207800075AD5A06903
:1021200000282BD001205FF00041B1FA81F1DFF8E7
:10213000C82612EB81021060FEF7DEFF05005FF09B
:102140008040B0FA80F05FF08040B0FA80F05FF03D
:102150008040B0FA80F0DFF8A80600685FF08041A8
:10216000B1FA81F111F01F01C840C00732D4FEF767
:10217000C3FF401B0328E2D30320D9E100205FF016
:102180000041B1FA81F1DFF8702612EB8102106094
:10219000FEF7B2FF05005FF08040B0FA80F05FF01C
:1021A0008040B0FA80F05FF08040B0FA80F0DFF855
:1021B000500600685FF08041B1FA81F111F01F0113
:1021C000C840C00706D5FEF797FF401B0328E2D39F
:1021D0000320ADE12078400740F1E3800027DFF8DD
:1021E00028060068C00010D4DFF81C06006850F014
:1021F0008050DFF814160860DFF80C06006810F055
:1022000080500090009801200700DFF80006006869
:10221000C00516D4DFF8F405006850F48070DFF8CC
:10222000EC150860FEF768FF0500DFF8E0050068C0
:10223000C00506D4FEF760FF401B6528F5D30320D8
:1022400076E1E068012808D1DFF8C405006850F0A5
:102250000100DFF8BC15086037E0E068002810D105
:10226000DFF8AC05006840084000DFF8A4150860FE
:10227000DFF89C05006830F00400DFF89415086072
:1022800023E0E068052810D1DFF88405006850F0ED
:102290000400DFF87C150860DFF87405006850F072
:1022A0000100DFF86C1508600FE0DFF864050068D6
:1022B00040084000DFF858150860DFF85405006852
:1022C00030F00400DFF848150860E06800282ED0E0
:1022D000FEF712FF05005FF08040B0FA80F05FF07B
:1022E0008040B0FA80F050F04000C0B24009C0B267
:1022F000022803D1DFF81805006806E05FF080408F
:10230000B0FA80F0DFF8F80400685FF08041B1FABD
:1023100081F111F01F01C840C00737D4FEF7ECFE71
:10232000401B41F289318842D5D3032000E1FEF7FA
:10233000E3FE05005FF08040B0FA80F05FF080407F
:10234000B0FA80F050F04000C0B24009C0B202289C
:1023500003D1DFF8BC04006806E05FF08040B0FA0B
:1023600080F0DFF89C0400685FF08041B1FA81F1F1
:1023700011F01F01C840C00708D5FEF7BDFE401B85
:1023800041F289318842D5D30320D1E0FFB2012F39
:1023900007D1DFF87404006830F08050DFF868146B
:1023A0000860E069002800F0C280DFF8500400688F
:1023B00010F00C00082800F0A580E06902286FD119
:1023C00000208021B1FA81F1DFF8382412EB81027C
:1023D0001060FEF791FE07004020B0FA80F050F048
:1023E0002000C0B24009C0B2012803D1DFF8F003D9
:1023F000006808E04020B0FA80F04020B0FA80F099
:10240000DFF8FC0300684021B1FA81F111F01F01EF
:10241000C840C00706D5FEF76FFEC01B0328DBD3FC
:10242000032085E0DFF8D403016831F47411606A99
:102430000143206A0143DFF8C403016001208021C9
:10244000B1FA81F1DFF8BC2312EB81021060FEF7D4
:1024500053FE05004020B0FA80F050F02000C0B2DA
:102460004009C0B2012803D1DFF87403006808E016
:102470004020B0FA80F04020B0FA80F0DFF880030E
:1024800000684021B1FA81F111F01F01C840C00776
:102490004DD4FEF731FE401B0328DBD3032047E079
:1024A00000208021B1FA81F1DFF8582312EB81027C
:1024B0001060FEF721FE05004020B0FA80F050F0D9
:1024C0002000C0B24009C0B2012803D1DFF81003D8
:1024D000006808E04020B0FA80F04020B0FA80F0B8
:1024E000DFF81C0300684021B1FA81F111F01F01EF
:1024F000C840C0071BD5FEF7FFFD401B0328DBD3F8
:10250000032015E0E069012801D1012010E0DFF887
:10251000EC020068060016F48030216A884204D17B
:1025200016F47010616A884201D0012000E000209A
:10253000F2BD70B504000D000026002C01D1012071
:10254000F2E0DFF8D002006810F00700A84211D2D4
:10255000DFF8C0020068C008C0002843DFF8B412EA
:102560000860DFF8B002006810F00700A84201D050
:102570000120D9E02078800707D59A48016831F01A
:10258000F001A0680143974801602078C00740F13E
:102590008A806068012823D14FF48040B0FA80F02F
:1025A00050F02000C0B24009C0B2012802D18C48CE
:1025B00000680AE04FF48040B0FA80F04FF48040A9
:1025C000B0FA80F0DFF8380200684FF48041B1FAC9
:1025D00081F111F01F01C840C00748D40120A3E0D9
:1025E000606802281FD14020B0FA80F050F020002F
:1025F000C0B24009C0B2012802D17948006808E0A1
:102600004020B0FA80F04020B0FA80F0DFF8F0010E
:1026100000684021B1FA81F111F01F01C840C007E4
:1026200025D4012080E05FF08040B0FA80F050F0C7
:102630002000C0B24009C0B2012802D16848006839
:102640000AE05FF08040B0FA80F05FF08040B0FABE
:1026500080F0DFF8AC0100685FF08041B1FA81F1F1
:1026600011F01F01C840C00701D401205CE05D48A3
:10267000016889088900606801435A480160FEF7D3
:102680003BFD06005748006810F00C006168B0EB95
:10269000810F08D0FEF730FD801B41F2893188425E
:1026A000F0D3032040E05B48006810F0070085424B
:1026B0000ED258480068C008C00028435549086039
:1026C0005448006810F00700A84201D001202BE018
:1026D0002078400707D54348016831F4E061E0689D
:1026E0000143404801602078000708D53D48006854
:1026F00030F46050216950EAC1003A49086000F0A6
:1027000014F838490968444A11F0F0015FF0706329
:10271000B3FA83F3D940515CC84034490860344867
:10272000006800F065FE002070BDF0B400200021BC
:102730000022002300242B4D2D6815F00C06042EDA
:1027400002D0082E02D025E0274824E0334815F4B3
:1027500070164FF47057B7FA87F7FE40805D03009C
:10276000244800682E4E10F00F005FF07047B7FA53
:1027700087F7F840305C0100E80305D51A48B0FB44
:10278000F1F05843020003E0264800FB03F002008A
:10279000100000E01448F0BC70471448006870470F
:1027A00080B5FFF7FAFF0F4909681F4A11F4E0618D
:1027B0005FF46003B3FA83F3D940515CC84002BDB3
:1027C00080B5FFF7EAFF07490968174A11F460511D
:1027D0005FF4E013B3FA83F3D940515CC84002BD03
:1027E000001002400410024000127A001C00002079
:1027F000180000202C1002408004424204100240C5
:1028000024100240000042421C10024000700040B0
:10281000201002400020024014410008F44000084B
:102820000441000800093D004C410008F8B50500CE
:102830000026002400272868C00340F19A80DFF8B2
:1028400090010068C00010D4DFF88401006850F0E7
:102850008050DFF87C110860DFF87401006810F028
:1028600080500090009801200700DFF868010068A0
:10287000C00516D4DFF85C01006850F48070DFF802
:1028800054110860FEF738FC0600DFF848010068C4
:10289000C00506D4FEF730FC801B6528F5D3032065
:1028A00094E0DFF83401006810F440700400002C5C
:1028B0004ED0686810F44070844249D0DFF81801A7
:1028C000006830F44070040001204FF40041B1FA78
:1028D00081F1DFF8082112EB8102106000204FF433
:1028E0000041B1FA81F13D4A12EB810210603A4891
:1028F0000460E0072CD5FEF7FFFB06005FF0804088
:10290000B0FA80F05FF08040B0FA80F050F0400004
:10291000C0B24009C0B2022802D12F48006805E0C9
:102920005FF08040B0FA80F02D4800685FF0804191
:10293000B1FA81F111F01F01C840C00708D4FEF7B9
:10294000DBFB801B41F289318842D7D303203DE075
:102950002148016831F44071686801431E480160F4
:10296000FFB2012F05D11A48006830F08050184995
:1029700008602878C00707D51A48016889088900C7
:10298000A8680143174801602878800607D51548D4
:10299000016831F01001E8680143124801602878AD
:1029A000000607D51048016831F4F8712869014321
:1029B0000D4801602868C00407D50A48016831F451
:1029C000807168690143074801600020F2BD000082
:1029D0001C100240007000402010024000044242DF
:1029E00024100240301002402C10024010B50400A8
:1029F000002C01D101200EE02079002804D1002014
:102A000060712000FEF7D9F90220207100202061BA
:102A100001202071002010BD38B404000020009077
:102A200020680090002905D1009D12F10800451989
:102A3000009504E0009D12F11400451900950098DE
:102A40000360002032BC704702005079012801D198
:102A500002202BE0012050710220107110680068E4
:102A600001238B4018431368186000290CD11068AB
:102A7000006810F03C003C2813D11068406850F00A
:102A80000100136858600CE01068006810F47010C2
:102A9000B0F5701F05D11068406850F0020013684F
:102AA0005860012010710020507100207047F0B470
:102AB00003000025002418681C4EB04201D1002AF2
:102AC000FFD05879012801D102202BE00120587154
:102AD00002201871186806681868144FB84209D1A6
:102AE000002A07D140F6FE70904086430D68486882
:102AF000054306E040F6FE70904086430D68886806
:102B0000054315FA02F00643186806601868006865
:102B1000C0249440A0431C6820600120187100204C
:102B200058710020F0BC70470000000000740040A5
:102B300030B4020092F83C00012801D1022034E0B8
:102B4000012082F83C00022082F83D0010684368B2
:102B5000106884681068164DA84203D133F47003DE
:102B60004868034333F07003086803431068436008
:102B700010680F4DA8420BD01068B0F1804F07D0FD
:102B800010680C4DA84203D010680B4DA84205D127
:102B900034F080048868044310688460012082F85F
:102BA0003D00002082F83C00002030BC704700004F
:102BB000002C0140000400400040014010B504001A
:102BC000002C01D1012035E0A0690028FFD1A06FC1
:102BD000002805D1002084F874002000FEF730F9A9
:102BE0002420A06720680068400840002168086031
:102BF000200000F05AF9012801D101201AE0606A92
:102C0000002802D0200000F035FA2068406830F437
:102C10009040216848602068806830F02A00216870
:102C200088602068006850F001002168086020007A
:102C300000F08DFA10BD10B50400002C01D1012068
:102C400020E02420A0672068006840084000216838
:102C5000086000202168086000202168486000208A
:102C6000216888602000FEF720F90020C4F8800069
:102C70000020A0670020E06700202066002084F884
:102C80007400002010BD2DE9FC4707000E00150060
:102C90009846B86F202860D1002E02D0ADB2002D2A
:102CA00001D101205AE097F87400012801D10220D7
:102CB00054E0012087F874000020C7F8800021202C
:102CC000B867FEF719FA8146A7F85050A7F8525096
:102CD000B868B0F5805F05D13869002802D10024BA
:102CE000B24602E034005FF0000A002087F874006A
:102CF000B7F85200002820D0CDF800804B460022C3
:102D00008021380000F05AFA002801D0032025E085
:102D1000002C08D1BAF80000C005C00D396808853C
:102D20001AF1020A03E0207839680885641CB7F8B4
:102D30005200401EA7F85200DAE7CDF800804B465B
:102D400000224021380000F039FA002801D0032089
:102D500004E02020B867002000E00220BDE8F687EC
:102D60002DE9F84F83460D0016001F00DBF87C00AC
:102D7000202840F09780002D02D0B6B2002E01D15D
:102D8000012090E09BF87400012801D102208AE024
:102D900001208BF874000020CBF880002220CBF8B3
:102DA0007C000020CBF86000FEF7A6F98046ABF867
:102DB0005860ABF85A60DBF80800B0F5805F0CD1C2
:102DC000DBF81000002804D140F2FF10ABF85C00E3
:102DD00027E0FF20ABF85C0023E0DBF808000028C8
:102DE0000BD1DBF81000002803D1FF20ABF85C000A
:102DF00017E07F20ABF85C0013E0DBF80800B0F1CF
:102E0000805F0BD1DBF81000002803D17F20ABF8E6
:102E10005C0006E03F20ABF85C0002E00020ABF86D
:102E20005C00BBF85C90DBF80800B0F5805F06D171
:102E3000DBF81000002802D10024AA4602E02C0092
:102E40005FF0000A00208BF87400BBF85A000028DD
:102E500023D00097434600222021584600F0AEF9C7
:102E6000002801D003201EE0002C09D1DBF800006F
:102E7000808C19EA0000AAF800001AF1020A06E0A4
:102E8000DBF80000808C19EA00002070641CBBF89D
:102E90005A00401EABF85A00D7E72020CBF87C0040
:102EA000002000E00220BDE8F28F2DE9F843040085
:102EB0000027A1682069014360690143E06901437B
:102EC00020680268654802400A4320680260206862
:102ED000426832F44052E068024320684260D4F80D
:102EE0001880206A50EA08082068806830F4306052
:102EF00058EA0000226890602068594A90421AD12E
:102F00005848006810F00300002805D002280CD0B3
:102F100008D3032803D00BE05FF000091BE05FF04B
:102F2000020918E05FF0040915E05FF0080912E0FB
:102F30005FF010090FE020684B49884202D15FF032
:102F4000000908E020684949884202D15FF0000981
:102F500001E05FF01009E069B0F5004F3FD15FFA82
:102F600089F94846002808D001280AD002280CD048
:102F700004280CD008280ED010E0FFF711FC010047
:102F80000FE0FFF71DFC01000BE0394909E0FFF7F6
:102F9000CCFB010005E04FF4004102E000210120DC
:102FA0000700002951D06068400810EB41006268BA
:102FB000B0FBF2F080B20600102E0DD3B6F5803FC4
:102FC0000AD24FF6F0723240C6F3420002431500B7
:102FD000ADB22068C56038E00120070035E05FFA37
:102FE00089F94846002808D001280AD002280CD0C8
:102FF00004280CD008280ED010E0FFF7D1FB010008
:103000000FE0FFF7DDFB01000BE0194909E0FFF7D6
:103010008CFB010005E04FF4004102E0002101209B
:103020000700002911D0606811EB50006268B0FB06
:10303000F2F080B20600102E05D3B6F5803F02D222
:103040002068C66001E001200700002060660020C3
:10305000A0663800C0B2BDE8F2830000F369FFEF5C
:103060000038014030100240004400400048004059
:1030700000127A0090F82410C90707D501684A6841
:1030800032F40032816A0A4301684A6090F82410E1
:10309000890707D501684A6832F48032C16A0A4359
:1030A00001684A6090F82410490707D501684A680A
:1030B00032F48022016B0A4301684A6090F82410C0
:1030C000090707D501684A6832F40042416B0A4398
:1030D00001684A6090F82410C90607D501688A681B
:1030E00032F48052816B0A4301688A6090F82410A0
:1030F000890607D501688A6832F40052C16B0A4319
:1031000001688A6090F82410490613D501684A685E
:1031100032F48012016C0A4301684A60016CB1F517
:10312000801F07D101684A6832F4C002416C0A432B
:1031300001684A6090F82410090607D501684A68BA
:1031400032F40022816C0A4301684A60704738B546
:1031500004000020C4F88000FDF7CEFF05002068C1
:10316000006800070DD57FF07E4000902B00002204
:103170005FF40011200000F021F8002801D00320A6
:103180001BE02068006840070DD57FF07E4000906E
:103190002B0000225FF48001200000F00FF80028CF
:1031A00001D0032009E02020A0672020E067002054
:1031B0002066002084F87400002032BD2DE9F04123
:1031C00005000E0017009846069C2868C06930402C
:1031D000B04201D1012000E00020FFB2B8425DD131
:1031E00014F1010FF1D0FDF787FFB0EB0800844226
:1031F00001D3002C21D1286850E8000F30F4D070A2
:1032000001002A6842E800100028F4D1286808303C
:1032100050E8000F400840000100286810F1080243
:1032200042E800100028F1D12020A8672020E8679C
:10323000002085F87400032031E02868006840070A
:10324000C3D52868C0690005BFD54FF40060296860
:103250000862286850E8000F30F4D07001002A6836
:1032600042E800100028F4D12868083050E8000F28
:10327000400840000100286810F1080242E80010F0
:103280000028F1D12020A8672020E8672020C5F879
:103290008000002085F87400032000E00020BDE8D5
:1032A000F081000010F0070349490A684FF6FF015A
:1032B0000A40484951EA03210A4345490A607047D8
:1032C00043480068C0F30220704740B2002809D488
:1032D000012210F01F018A403F4940B203005B0900
:1032E00041F82320704710B440B2002804D40A01EA
:1032F0003A4B40B21A5407E00A01394B40B210F081
:103300000F04234403F8042C10BC704770B403006E
:1033100013F00704D4F10700052801D3042001E0CD
:10332000D4F10700251D072D01D2002500E0E51E80
:10333000012616FA00F0401E0140A940012010FAB3
:1033400005F56D1E2A401143080070BC704710B58A
:103350000400601EB0F1807F01D301200EE0601EEA
:10336000204908600F215FF0FF30FFF7BCFF00200D
:103370001D49086007201D490860002010BD10B5D8
:1033800004002000FFF78EFF10BD2DE9F04104007E
:103390000D0016000027FFF793FF8046320029003A
:1033A0004046FFF7B3FF0100200040B2FFF79BFF4C
:1033B000BDE8F08110B50400200040B2FFF785FFA2
:1033C00010BD10B504002000FFF7C1FF10BD0000C4
:1033D0000CED00E00000FA0500E100E000E400E090
:1033E00018ED00E014E000E018E000E010E000E07C
:1033F00010B504004FF47A700D490978B0FBF1F074
:103400000C490968B1FBF0F0FFF7DBFF002801D0A1
:1034100001200CE0102C09D2002221005FF0FF30C7
:10342000FFF7B3FF04480460002000E0012010BD56
:10343000200000201C0000201800002080B59FED17
:103440005E0A00F001F801BD10B52DED028BB0EE63
:10345000408A9FED5A0AB4EE408AF1EE10FA12D576
:103460000024574890ED000A28EE000AFDEEC08ABD
:1034700018EE903A002200215248FFF7CDFA0021C1
:103480005048FFF7E1FABDEC028B10BD80B52DED81
:10349000068BB0EE408ADFED488ADFED479A4A4856
:1034A000408800EE100AB8EE400A4848D0ED000A05
:1034B00020EE20AA88EE0A9AB0EE490AFFF7C4FF70
:1034C000BDEC068B01BD000080B52DED068BB0EE86
:1034D000408ADFED398ADFED389A3B48408800EEBC
:1034E000100AB8EE400A3948D0ED000A20EE209AC2
:1034F00089EE08AAB0EE4A0AFFF7A6FFBDEC068BDC
:1035000001BD80B50023002200212E48FFF784FA78
:1035100000212C48FFF798FA01BD0000DFED260AD4
:103520002948008800EE100AB8EE400A284890EDBD
:10353000001A20EE010A7047DFED1F0ADFED1E1AA8
:10354000DFED1D2A2048408800EE100AB8EE400A40
:103550001E4890ED001A20EE012A1B48008800EE5C
:10356000100AB8EE400A1A4890ED001A20EE011A2F
:1035700021EE020A70470000DFED0F0ADFED0E1AA0
:10358000DFED0D2A1048408800EE100AB8EE400A20
:103590000E4890ED001A20EE011A0B48008800EE4C
:1035A000100AB8EE400A0A4890ED002A20EE022ADE
:1035B00081EE020A704700000000000034335340DF
:1035C0000000002088010020D00100200800002019
:1035D000040000202DE9FE4304000D000026052014
:1035E00020702078002837D0F6B2032E34DA642316
:1035F0000822A649A648FFF7B3FB002805D0761C91
:103600000520207000F09CF8EBE708219F4800F0AF
:103610003FF82070C0B200280AD021009D4800F079
:103620005DF99C499C4800F019F800F089F8D8E74A
:103630000827DFF85882DFF85C923A004146484696
:1036400000F064FB9149684600F08DF8684690E808
:103650000E0085E80E00C4E7BDE8F78370B50400EE
:103660000D00002605202070207800280FD0F6B22B
:10367000032E0CDA0A23082229008548FFF703FBF2
:10368000002801D0761CEFE700202070ECE770BD29
:1036900038B504000D00082D01D001201DE02900DF
:1036A000C9B2200000F01AF8012801D0022014E06D
:1036B0006078FF2801D101200FE06078FE2801D159
:1036C00002200AE06078FD2801D1032005E060783F
:1036D000FC2801D1042000E0002032BD30B40200FB
:1036E000002300200024E4B2C9B2481E844204DA58
:1036F000E4B2105DC318641CF5E71800E4B2155D70
:10370000C0B2A84201D1012000E0002030BC7047C7
:103710000100C9B2012907D010D3032908D005D36D
:10372000052909D006D309E0FF2008E0FE2006E0C5
:10373000FD2004E0FC2002E0FB2000E000207047B8
:10374000E0B5684600210022C0E9001200230822EB
:1037500069464F48FFF704FB4D48FFF76CFA4C48A9
:10376000FFF72CFA07BD7FB504000D0068464B49F2
:1037700091E84C0080E84C00687806282BD1A878A6
:10378000012808D100208DF80000280000F04AF838
:103790008DED010A1FE0A878022808D101208DF8DC
:1037A0000000280000F03EF88DED010A13E0A87833
:1037B000032808D102208DF80000280000F032F81C
:1037C0008DED010A07E00721354800F0A9F83449DA
:1037D0003148FFF743FF684690E80E0084E80E008A
:1037E0007FBD17B581B01C0000208DF801000020BE
:1037F0008DF800000620607001A807C800F056F898
:10380000A0700DF1010168469DED020A00F028F854
:103810009DF80100E0709DF800002071200000F08C
:1038200070F81FBD10B52DED028B04009FED158AB9
:10383000E078217951EA002100EE101AB8EEC00AB2
:1038400010EE100A00F098F8164A174B00F08CF9A9
:1038500000F0B0FA00EE100ABDEC028B10BD0000C3
:1038600010B40022DFED080A60EE200AFDEEE00A47
:1038700010EE903A03701C00A4B2240A0C7010BC25
:10388000704700000000000000007A44A4010020FE
:10389000240000209C010020D801002034410008B1
:1038A000AC010020FCA9F1D24D62503F07B40020CA
:1038B0009DF80010002902D1012108000CE09DF8BC
:1038C0000010012902D10221080005E09DF8001036
:1038D000022901D10321080003B07047F8B50400A4
:1038E0000D00042600273A003100200000F096FA6F
:1038F0002878FFF70DFFA0702878FFF709FFE07127
:10390000F1BD027841788A1881788A18C1788A18BE
:1039100001798A1841798A1881798A18C2717047A9
:10392000F8B504000D00042600273A0031002000FD
:1039300000F074FAEDB2062D01D1FA20A070EDB2BC
:10394000072D01D1F920A0702000FFF7DAFFF1BDAB
:1039500070B50400FDF7D0FB0500260016F1010F3D
:1039600002D0044800783618FDF7C6FB401BB04271
:10397000FAD370BD20000020C0F3C75181B1FF29E8
:1039800006D0C110400721F0E04101F160517047BD
:1039900041020CBF40F4E0016FF00041002070478D
:1039A00000F0004100020AD0B0FA80FC00FA0CF0EE
:1039B00001F16051A1EB0C5101EBD02140057047A2
:1039C00070B44FF0004591EA030F40F15B826B4009
:1039D000841A71EB030604D26E40001BB141121928
:1039E00073414FF4001C1CEB410F34BF7CEB4306CA
:1039F00082E00C0DA4EB1356362E7BDC012E45EA3B
:103A0000C32341DC43EA525312BFD20292025B0845
:103A1000240545EAC12141EA5051D2EBC020994129
:103A200025D407D1B0FA80F610FA06F162D0002052
:103A3000203608E0B1FA81F6B140C6F1200220FA42
:103A400002F21143B0404FEAF474B4EB465434F040
:103A500001064FEA74040AD8D6F50016760D04F074
:103A60000044F04061FA06F25040F1404840C00A7C
:103A700040EA415021F0004128BF5FEA500550F173
:103A8000000044EBD12135E0DB0A45EAC121C90A37
:103A9000B6F120050EDD42EA0242120CC5F1200605
:103AA00003FA06F6EB4042EA06056D42984161F1E1
:103AB00000010DE062FA06F5F240554063FA06FC9B
:103AC00082EA0C02F3405A406D42904161EB0301DF
:103AD00011F4801F05D1641E620502D06D004041C3
:103AE000494121F48011430875F1004350F1000071
:103AF00041EB045170BC70471CEB410F15D223F011
:103B0000004352EA43060BD04FEA4C0CBCEB410F8A
:103B100004D80C0D661E342EB7DDEBE7801A9941F0
:103B200050EA410608BF0021E4E708BF1CEB430F41
:103B300028BF6FF00001DDE74FF4001C1CEB410FC4
:103B400094BF1CEB430F09E041EA030C50EA4C0C14
:103B500052EA0C0C03D2994208BF9042704714BF3E
:103B60008B42824270470000B0B581EA030C0CF032
:103B7000004C40F2FF7515EA11541DBF15EA1357AA
:103B8000AC42AF4239E0E41923EA455343F48013D1
:103B9000C90241F0004141EA505EC7021100A7FB93
:103BA000020200284FF00000EEFB01204FF0000160
:103BB000E3FB072118BF42F00102401800214941F0
:103BC000E3FB0E01A4F580640F0302D252004041D2
:103BD000494154F101046CDD470872F1004250F193
:103BE000000051EB0451A1F580115CBF41EA0C01CA
:103BF000B0BD4CEA05510020B0BD05EA1357AC42F8
:103C000014BFAF4241E050EA410E1CBF52EA430EDE
:103C100002E061460020B0BD24423C441BD15FEA73
:103C2000070EF6D0090302BF01460020AEF1140EC4
:103C3000B1FA81F7AEEB070401FA07FE0C37C7F1C2
:103C4000200100FA07F7C8404EEA000E23EA455368
:103C500043F48013A2E733F00043B3FA83F704BFC1
:103C6000B2FA82FE77440B3FE41BB7F1200E2FBF60
:103C700002FA0EF3BB40C7F1200E22FA0EFE38BF47
:103C800043EA0E03BA40641C82E750EA410E14BFB7
:103C900052EA430E6FF000014FF4001717EB430F89
:103CA0008ABF194617EB410FB5E74CEA05510020D2
:103CB000B0BDD4F10104B4F120070FDAC4F120073C
:103CC000520828BF42F0010210FA07F501FA07F77F
:103CD000E1BF2A43E0403843E1400FE0352C98DC57
:103CE000C7F1200452EA400220FA07F218BF42F05E
:103CF000010231FA07F0A1400A43002172F10042AB
:103D000050F1000051EB0C01B0BD000062B38B0715
:103D100008D0521E11F8013B00F8013B00F024804E
:103D20008B07F6D1830740F0208000BF103A07D3FD
:103D300030B4B1E83810103AA0E83810F9D230BCED
:103D4000530724BFB1E80810A0E8081044BF51F899
:103D5000043B40F8043BD20724BF31F8022B20F883
:103D6000022B44BF0B7803707047121F17D35B0000
:103D700009D151F8043B20F8023B1B0C121F20F81C
:103D8000023BF6D20BE051F8043B00F8013B1B0A62
:103D900020F8023B1B0C121F00F8013BF3D238BF86
:103DA000121D521E24BF11F8013B00F8013BF8D848
:103DB0007047000001F000428B1AA3F16051B1F589
:103DC000801F0ADBB1F17F6F1FD242EAC102C1003E
:103DD00071F1004142EB507070470B15C3F10903BC
:103DE000212B10D2890241EA9051800201284941D9
:103DF00041F0004121FA03F0C3F12003994071F131
:103E0000004150417047100070476FF0000013EB05
:103E1000103F5CBF000E42EAC050704762F30F22B1
:103E200062F31F42401810F0030308D0C91A1FD3D1
:103E3000DB0748BF00F8012D28BF20F8022D130032
:103E400030B414461546103928BF20E93C00FAD892
:103E5000490728BF20E90C0048BF40F8042D89001D
:103E600028BF20F8022D48BF00F8012D30BC704754
:103E7000C91818BF00F8012DCB0728BF00F8012D85
:103E800070470000841A71EB030603D2001BB14196
:103E9000121973414FF4001C1CEB410F34BF7CEB33
:103EA000430442E00C0DA4EB1356352E4FDC45EADB
:103EB000C323DB0A45EAC121C912B6F120050DDD95
:103EC00063FA05F6EB4086EA0305124218BF45F097
:103ED0000105C01851F100010CD213E062FA06F599
:103EE000F2405540F3415A40B340F3405A408018E5
:103EF000594107D349085FEA30005FEA350528BF1A
:103F000045F0010501F58011420875F1004250F1BC
:103F1000000041EB04514E0016F5001F70BC38BF85
:103F200070470020090D090570471CEB410F10D2A6
:103F300052EA43060BD0BCEB410F05D80C0DAB4346
:103F4000661E342EB6DD02E0AB438018594170BCCA
:103F5000704770BC704719E050F8042BD30744BF7A
:103F6000A9F101039A18091F0023042942F8043B10
:103F7000F9D25FEA817C134604D54FF0000CA2F819
:103F800000C09B1CC90744BF0021197050F8041BD6
:103F90000029E1D1704710B450F8041B79B10268D0
:103FA000436802440830DC0744BFA9F10104E31868
:103FB00052F8044B43F8044B091FF9D1ECE710BC4D
:103FC000704700007047FEE7FEE7FEE7FEE7704738
:103FD0007047704780B500F009F801BD80B5024810
:103FE000FCF7FDFF01BD000044010020034800680C
:103FF000034909784018014908607047D40100203E
:104000002000002010B5074979441831064C7C4443
:10401000163404E00A68081D114488470146A1428D
:10402000F8D110BD50000000700000004EF688511D
:10403000CEF20001086840F470000860BFF34F8FB3
:10404000BFF36F8F4FF00070E1EE100A7047000071
:104050007B74AA444108043C96438B3C0300000057
:1040600000000000000000001000000000127A00B4
:1040700001000000E3FEFFFFB80100002400002063
:104080000000000013FFFFFF24000000C4FFFFFF3B
:10409000000000200000000000F00DF8002801D012
:1040A000FFF7B0FFAFF300800020AFF30080FDF713
:1040B000B1F900F002F80120704700F001B80000EB
:1040C0000746384600F002F8FBE7000080B5AFF382
:1040D0000080024A11001820ABBEFBE72600020058
:1040E0000348006850F47000014908607047000000
:1040F00088ED00E002030405060708090A0B0C0D11
:104100000E0F10100102030405060708090A0B0C24
:104110000D0E0F100000000000000000010203045B
:10412000060708090148804701480047E1400008A8
:1041300041410008030000000000000000000000F2
:10414000AFF30080FFF772FFFFF7A6FF000000004B
:1041500001020304FFF7FEBFFFF7FEBFFFF7FEBF3C
:10416000FFF7FEBFFFF7FEBFFFF7FEBFFFF7FEBF83
:10417000FFF7FEBFFFF7FEBFFFF7FEBFFFF7FEBF73
:10418000FFF7FEBFFFF7FEBFFFF7FEBFFFF7FEBF63
:10419000FFF7FEBFFFF7FEBFFFF7FEBFFFF7FEBF53
:1041A000FFF7FEBFFFF7FEBFFFF7FEBFFFF7FEBF43
:1041B000FFF7FEBFFFF7FEBFFFF7FEBFFFF7FEBF33
:1041C000FFF7FEBFFFF7FEBFFFF7FEBFFFF7FEBF23
:1041D000FFF7FEBFFFF7FEBFFFF7FEBFFFF7FEBF13
:1041E000FFF7FEBFFFF7FEBFFFF7FEBFFFF7FEBF03
:0C41F000FFF7FEBFFFF7FEBFFFF7FEBFAA
:04000005080041416D
:00000001FF
